:10000000F8FF0020110400002B5C00002B5C0000B6
:100010002B5C00002B5C00002B5C00002B5C0000C4
:100020002B5C00002B5C00002B5C00002B5C0000B4
:100030002B5C00002B5C00002B5C00002B5C0000A4
:100040002B5C00002B5C00002B5C00002B5C000094
:10040000FFFFFFFFFFFFFFFFFFFFFFFFFEFFFFFFFD
:1004100062B606F05DFBFEE70C6755679D67E36714
:1004200028686B68AE68EF682F696D69AA69E7692B
:10043000226A5B6A946ACC6A036B386B6D6BA06B43
:10044000D36B056C366C666C956CC36CF16C1E6D71
:100450004A6D756DA06DCA6DF46D1D6E456E6D6E45
:10046000946EBB6EE26E086F2E6F546F796F9E6F45
:10047000C36FE86F0C703170557079709E70C270E8
:10048000E7700B71307155717B71A071C671EC71A1
:1004900013723A7261728972B272DB7205732F73D2
:1004A0005A738673B373E1730F743F746F74A174DE
:1004B000D37407753C757275A975E2751C7657760D
:1004C0009476D276127754779777DB7722786A78AA
:1004D000B47800794E799E79F079447A9A7AF27AF2
:1004E0004D7B000086028602860286020902BC025B
:1004F0003203C7035C04F00485051A06AF06430700
:10050000D8076D08010996092B0ABF0A540B000091
:100510008B028B028B028B0207029C023103C50304
:100520005A04EF0484051906AE064207D7076C0883
:10053000010996092A0ABF0A540B00000080894469
:100540000000004000409C45000000400040B545D0
:100550000000004000808944000000400080894481
:10056000000000400200000003000000416E000097
:1005700010000000856E000021000000416E0000A8
:1005800022000000C56E000030000000036F000074
:1005900011000000257200000000000000000000B3
:1005A000000000000000000000000000000000004B
:1005B000000000000000000000000000000000003B
:1005C000000000000000000000000000000000002B
:1005D000000000000000000000000000000000001B
:100980000000000000004E6F6E4D61736B61626C81
:100990006500000000486172644661756C74000077
:1009A000000000004D656D4D616E6167656D656E9F
:1009B0007400004275734661756C7400000000009D
:1009C000000055736167654661756C740000000036
:1009D0000000000000000000000000000000000017
:1009E0000000000000000000000000000000000007
:1009F00000000000000000000000000000000000F7
:100A000000000000000000000000000000535643FA
:100A1000616C6C000000000000000000446562751D
:100A2000674D6F6E69746F72000000000000000077
:100A30000000000000000000000050656E64535686
:100A40000000000000000000005379735469636BDC
:100A50000000000000000000444D41300000000094
:100A600000000000000000444D4131000000000083
:100A7000000000000000444D413200000000000072
:100A80000000000000444D41330000000000000061
:100A900000000000444D4134000000000000000050
:100AA000000000444D41350000000000000000003F
:100AB0000000444D4136000000000000000000002E
:100AC00000444D413700000000000000000000001D
:100AD000444D4138000000000000000000000044C8
:100AE0004D41390000000000000000000000444DAE
:100AF00041313000000000000000000000444D4182
:100B0000313100000000000000000000444D413180
:100B10003200000000000000000000444D4131336D
:100B200000000000000000000000444D413134008E
:100B3000000000000000000000444D41313500007D
:100B40000000000000000000444D415F4572726FDC
:100B5000720000000000004D434D00000000000046
:100B60000000000000004654464C00000000000059
:100B70000000000000526561645F436F6C6C697334
:100B8000696F6E004C56445F4C56570000000000E1
:100B90000000004C4C570000000000000000000066
:100BA00000005761746368646F6700000000000014
:100BB00000524E470000000000000000000000004E
:100BC00049324330000000000000000000000049EE
:100BD00032433100000000000000000000005350CC
:100BE00049300000000000000000000000535049A0
:100BF00031000000000000000000000053504932A6
:100C0000000000000000000000000043414E305F83
:100C10004F525F4D425F6275660043414E305F4206
:100C200075735F4F666600000043414E305F45724A
:100C3000726F72000000000043414E305F54785FD5
:100C40005761726E696E6743414E305F52785F57ED
:100C500061726E696E6743414E305F57616B655FCD
:100C60005570000000526573657276656435310019
:100C700000000000526573657276656435320000CD
:100C800000000043414E315F4F525F4D425F62753D
:100C9000660043414E315F4275735F4F66660000E8
:100CA0000043414E315F4572726F720000000000D8
:100CB00043414E315F54785F5761726E696E67438E
:100CC000414E315F52785F5761726E696E67434182
:100CD0004E315F57616B655F557000000052657360
:100CE00065727665643539000000000052657365F1
:100CF0007276656436300000000000554152543071
:100D00005F52585F54580000000055415254305F04
:100D100045525200000000000055415254315F52CC
:100D2000585F54580000000055415254315F4552FD
:100D30005200000000000055415254325F52585F8B
:100D400054580000000055415254325F4552520041
:100D5000000000000055415254335F52585F545810
:100D60000000000055415254335F455252000000CC
:100D700000000055415254345F52585F54580000EF
:100D8000000055415254345F4552520000000000AB
:100D90000055415254355F52585F545800000000CE
:100DA00055415254355F4552520000000000004149
:100DB00044433000000000000000000000004144F7
:100DC00043310000000000000000000000434D50CF
:100DD000300000000000000000000000434D5031D2
:100DE0000000000000000000000000434D503200F1
:100DF0000000000000000000000046544D300000DC
:100E000000000000000000000046544D31000000CA
:100E1000000000000000000046544D3200000000B9
:100E200000000000000000434D54000000000000DE
:100E300000000000000052544300000000000000C9
:100E400000000000005265736572766564383300F7
:100E50000000000050495430000000000000000075
:100E60000000005049543100000000000000000064
:100E70000000504954320000000000000000000053
:100E80000050495433000000000000000000000042
:100E900050444230000000000000000000000055F7
:100EA00053423000000000000000000000005553D5
:100EB00042444344000000000000000000454E454D
:100EC000545F313538385F54696D6572454E45540D
:100ED0005F5472616E736D69740000454E45545FD6
:100EE00052656365697665000000454E45545F456F
:100EF00072726F720000000000493253300000002F
:100F000000000000000000005344484300000000BF
:100F100000000000000000444143300000000000D9
:100F200000000000000044414331000000000000C8
:100F30000000000000545349300000000000000091
:100F4000000000004D4347000000000000000000CA
:100F50000000004C5054696D6572000000000000F4
:100F600000005265736572766564313032000000AE
:100F700000504F52544100000000000000000000EB
:100F8000504F52544200000000000000000000508A
:100F90004F52544300000000000000000000504F7A
:100FA00052544400000000000000000000504F5266
:100FB0005445000000000000000000005265736509
:100FC00072766564313038000000005265736572D6
:100FD00076656431303900000000526573657276C1
:100FE00065643131300000000052657365727665CA
:100FF00064313131000000005265736572766564BA
:1010000031313200000000526573657276656431DB
:1010100031330000000052657365727665643131CA
:1010200034000000005265736572766564313135B5
:1010300000000000526573657276656431313600D8
:1010400000000052657365727665643131370000C7
:1010500000005265736572766564313138000000B6
:1010600000526573657276656431313900000000A5
:10107000008003400090034000800B4000F00F40D0
:1010800040F00F4080F00F40C0F00F4000F10F40E3
:10109000F0000A1D30001800320018016000181816
:1010A0006400181A6E00181F780013187D00131AB8
:1010B0008200131C8C000E1296000E15A0000E1854
:1010C000AA000E1BB4000E1EC8000C1CE1000B1E73
:1010D000FA000A1F000109080090044000A0044023
:1010E00000B0044000C0044000D0044000A006400E
:1010F00000B0064000C0064000D0064000A00E40F0
:1011000000B00E406A6E6B6C676D4E4F442918003C
:10111000020401019419FF1FE419FF1F9419FF1F16
:101120009419FF1F9419FF1F4511FF1F2C11FF1F5A
:1011300000000000000000000000000000000000AF
:10114000000000000000000000000000000000009F
:101150002DE9F04FA1B08046002017461D460291B0
:101160000B900DF1440A6FF000490AE017F8011BDB
:101170000298C0470028029000F0A5820B98401CFE
:101180000B90387808B90B989FE22528EED1002003
:10119000059006900790089009900A9001E040F0B1
:1011A000010017F8011F2029F9D023290DD02B2980
:1011B00004D02D2906D030290AD00CE040F00200DE
:1011C00080B2EEE740F00400FAE740F00800F7E7ED
:1011D00040F01000F4E72A290ED12968296051F85F
:1011E000042B2960002A0D9204D5514240F00400DE
:1011F0000D9180B27F1C11E000210D9109E00D9945
:10120000494505D001EB810302EB430130390D91D3
:101210007F1C3A78A2F130010A29F0D339782E29BF
:1012200003D04FF0FF310C911DE017F8011F2A2960
:1012300007D1296829607F1C51F8042B29600C9282
:1012400011E000210C9109E00C99494505D001EB12
:10125000810302EB430130390C917F1C3A78A2F1F3
:1012600030010A29F0D3ADF838000FF6C0203978E4
:1012700000F07AFD08B117F8010B8DF83A009DF8DF
:101280003A00682802BF39786829622005D06C28A6
:1012900004BF38786C2803D171208DF83A007F1C88
:1012A00011A8049017F8014BB4F1250023D0203881
:1012B000022840F2BB80133800F0E0800B3800F0C9
:1012C0004A81401E00F02381401E022840F2AE8079
:1012D000001F00F01C81401F79D0401E00F0CE801E
:1012E000401E24D0C01E0BD0801E00F0C780C01E40
:1012F00000F0C48039E125208DF8440001203DE153
:101300002868286050F8046B286003960C9C002C19
:1013100004D5304600F034FD044606E022460021A4
:10132000304600F049FD00B1841B069427E129688E
:1013300029603C2451F8040B29600021CDE900010B
:1013400011A80390DDE90001049E11B908B90C9AB7
:10135000B2B10206120FA0EB02123032D2B2631EFB
:101360003A2AA8BF2732000940EA017009099A55B4
:1013700008BF00281C4603D0039AA3199A42E8D359
:10138000A0190390C4F13C010C980691814209DA3E
:10139000401A08904FF6EF71BDF838000840ADF8DC
:1013A0003800ECE0002840F1EA809DF8380000F0B9
:1013B0001400102840F0E3800D98059A801A089ACE
:1013C000801A441A012CC0F2DA800894D7E09DF804
:1013D0003A0062281AD0682806D06A280CD06C28F7
:1013E0001CD0712808D019E02868286050F8041B28
:1013F00028600B980880C2E02868286050F8042B09
:1014000028600B98C117C2E90001B8E0286828607D
:1014100050F8041B28600B980870B0E0286828601A
:1014200050F8041B28600B980860A8E02868C01DCD
:1014300020F007022A60D2E9000108322A60CDE9D3
:101440000001002902D505982D210AE0BDF83800D9
:10145000810702D505982B2103E0C00705D5059823
:10146000202100F80A10401C059011A805990818C1
:101470000390214600A800F0E5F980E09DF83A00CD
:101480006C280DD0712818BF6A2809D12868C01DA2
:1014900020F007022A60D2E9000108322A6005E044
:1014A0002968296051F8040B29600021CDE9000169
:1014B0009DF83A00682803D1DDE9000180B20BE015
:1014C000622803D1DDE90001C0B205E0742818BF2D
:1014D0007A2804D1DDE900010021CDE900019DF861
:1014E000380000072ED5DDE90001002908BF0028DB
:1014F00028D044F02000782824D10598302100F825
:101500000A10401C411C059100F80A401AE09DF8A1
:101510003A00294600F0DCF8CDE90001002902DAA2
:1015200005982D210AE0BDF83800810702D50598FD
:101530002B2103E0C00705D50598202100F80A10EB
:10154000401C059011A8059908180390214600A891
:1015500000F0F5F813E0012005902868286050F8A5
:10156000041B28608DF8441009E025208DF8440004
:10157000012005901CB18AF80140022005900D98C9
:101580000599401A0899401A0699401A0999401A73
:101590000799401A0A99441A9DF83800400710D458
:1015A00020208DF84000002609E0012310AA00A9A0
:1015B000404600F0A3FB002840F08580761CA64240
:1015C000F3DB059E0DF1440B0AE01BF8011B0298AA
:1015D000C0470028029076D00B98401C0B90761ED6
:1015E000002EF2D130208DF840004FF0000B089E05
:1015F00009E0012310AA00A9404600F07FFB002863
:1016000061D10BF1010BB345F3DB069EDDF80CB0A5
:101610000AE01BF8011B0298C0470028029052D034
:101620000B98401C0B90761E002EF2D130208DF8C6
:1016300040004FF0000B099E09E0012310AA00A909
:10164000404600F05BFB00283DD10BF1010BB34598
:10165000F3DB03980699079E01EB000B09E01BF8EA
:10166000011B0298C047029068B30B98401C0B9076
:10167000761E002EF3D130208DF840004FF0000B85
:101680000A9E08E0012310AA00A9404600F036FB9C
:10169000C8B90BF1010BB345F4DB9DF838004007E6
:1016A0007FF56FAD20208DF84000002600E0761C0D
:1016B000A642BFF666AD012310AA00A9404600F07D
:1016C0001DFB0028F3D04FF0FF3021B0BDE8F08FB4
:1016D000622826D068281DD06A2808D06C2827D018
:1016E000712804D0742823D07A280CD020E0086810
:1016F000C01D20F007000860D0E900230830086012
:101700001946104670470A680A6052F8040B0A60CE
:10171000002170470A680A6052F8040B0A6000B2A0
:101720000BE00A680A6052F8040B0A6040B204E059
:101730000A680A6052F8040B0A60C11770472DE965
:10174000FA4E05460A462F696F2A08BF082405D0BD
:1017500041F02000782814BF0A2410243C26D5E943
:101760000001642A18BF692A81468A4605D10029EA
:1017700003DAD9F100096AEB4A0ABAF1000F08BF8F
:10178000B9F1000F0CD1286B50B9082C36D195F85F
:101790003800000732D530203B2687F83B002DE08B
:1017A000E31748465146224600F032FBA4FB0023D3
:1017B000A9EB02023032D2B2A6F1010B3A2A5E4600
:1017C00003DB9DF80030513B9A1881465FEA010A1D
:1017D0000BF8072008BFB9F1000F03D0E868F11932
:1017E0008842DDD3082C09D195F83800000705D5CB
:1017F000F05D302802D0761E3020F055C6F13C0056
:10180000A861F119E960296B884208DA081A286290
:101810004FF6EF71288F08402887BDE8F38E002926
:101820000ED595F8381001F01401102908D1696B14
:101830006A69891A2A6A891A0E1A012EA8BF2E62AD
:10184000BDE8F38E2DE9F34F8BB0D0E90089006B32
:10185000002801AF48BF062005D404BF41F0200096
:10186000672802D101200B99086340F2FF720B98A0
:101870004168C1F30A50904220D1080302BF0B987F
:10188000006800280AD10B99032088619DF8300078
:1018900061381A2858D30FF2A84109E00B990320A8
:1018A00088619DF8300061381A284AD30FF28841C8
:1018B0000B98C068032200F023FB00E1012807DA3F
:1018C0000B9800F058FB012802DB00230026EDE016
:1018D0000B9ADFF854B1526840F2FE3161F31E52A8
:1018E0000B994A6040F2FE31461A404649460022B2
:1018F000002300F061FB38BF89F0004936B247F29F
:1019000097507043494990FBF1F636B2C6F107078C
:10191000012F92461BDBF80707D552465B4640462F
:10192000494600F061FB804689465046594652467A
:101930005B467F1000F058FB002F82468B46EAD1B1
:1019400026E00FF2F031B3E70FF2F031B0E77F425B
:101950000024374D12E0F80707D552465B46204673
:10196000294600F041FB04460D4650465946524672
:101970005B4600F039FB7F1082468B46002FEAD190
:101980004046494622462B4600F000FC80468946E8
:101990009DF830000B99DFF89CB0096B40F02005F2
:1019A000662D0CBF06F10A0006204718142FA8BFA9
:1019B000132730208DF804000DF10504012F3BDBC7
:1019C0004046494600F024FD014604F10802042384
:1019D0004FF00A0CB1FBFCFC0CEB8C04A1EB4401B6
:1019E000303102F8011C0A21BCFBF1FE0EEB8E0423
:1019F000ACEB440430345B1E714602F8024DE7D173
:101A0000083F012F02F10804D8DB00F021FD024657
:101A10000B464046494600F029FD00225B4600F097
:101A2000E3FA80468946CBE700002440A086010007
:101A30000000F03F84D797410DF10500201A0DF109
:101A4000050702E0401E761E7F1C39783029F9D048
:101A5000662D02D136B2711C03E0652D0CBF012149
:101A600000210B9A126B8B181BB29842B8BF034629
:101A70001BB219001AD4814204DAC85D3528A8BF08
:101A8000392000DA3020CA19521E00E05B1E12F81D
:101A90000159491E8542F9D0392802D1C85D401C40
:101AA000C855002902D57F1E5B1C761C36B29DF8F6
:101AB00030100B9800961BB23A4600F003F80DB0B8
:101AC000BDE8F08F2DE9F04786B006468A4690467D
:101AD0001D4600F0A8FD012D406A376B90F800907C
:101AE00002DA01250FF25C284AF02000BDF93840E7
:101AF000662808BF641C13D0672840F0888014F162
:101B0000040F73DBBC4271DA96F83800641C0007DE
:101B100002D4BD42B8BF2F4624B23F1B48BF0027A6
:101B200024B2F068B169012C21DA4A1C30230B542D
:101B3000012F03DA96F83810090702D502F8009051
:101B4000521CE742B8BF7C4224B2E7196142AF425F
:101B5000B2617162B8BF3D46B3692DB2F5612A46E4
:101B60004146181800F0CCF9781BB062AFE00818B5
:101B7000A54216DA2A46414600F0C2F9B169691851
:101B8000601B012FB161706203DA96F8380000071C
:101B900005D5F06801F80090F069401CF061B7626B
:101BA00095E02246414600F0ABF9B06920182D1BA4
:101BB000012F03DA96F83810090703D5F16800F809
:101BC0000190401CB0612DB2AF42B8BF3D46F068F5
:101BD000B3692DB22A4604EB0801181800F090F9F9
:101BE000B0692818B061781B706270E0BD4204DAF9
:101BF00096F83810090758BF2F467F1E48BF0027A8
:101C0000BAF1670F0CBF4FF0650A4FF0450AB16992
:101C1000F06818F8013B0B544A1C012F05DA96F8BE
:101C20003810090758BFB26115D502F80090531C4F
:101C3000012FB3610FDB6D1E2DB2AF42B8BF3D4621
:101C40002DB22A464146181800F05AF9B0692818F2
:101C5000B061781B7062F068B1690918200081F8E2
:101C600000A004D42B20487001F1020804E02D22CA
:101C70004A7001F102086442002502AF08E00A221E
:101C800000A800F0E9FC019807F8010B6D1C009C0E
:101C900021B20129F3DA022D06DA4AF02000652884
:101CA00004BF302008F8010B4DB9302008F8010BB3
:101CB00007E06D1E02A8285C303008F8010B012DEA
:101CC000F7DAF068B1690818A8EB0000F06196F83F
:101CD000380000F0140010280DD17069B16908189F
:101CE000716A0818F1690818B16A0818716B88429E
:101CF000BCBF081A306206B0BDE8F087F8B50446EC
:101D00000D4616461F46002004E0E86A401CE862C3
:101D10007F1E002047B116F8011BA868A0470028C5
:101D2000A860F2D14FF0FF30F2BD0000686A6C7419
:101D30007A4C00006E616E004E414E00696E660086
:101D4000494E4600300050F8041B61B150F8042B96
:101D5000D30744BFA9F101039A180023091F42F8D1
:101D6000043BFAD1EFE770470278C9B28A421AB150
:101D70001CBF10F8012FF9E718BF002070470000C2
:101D800000F10103810704D010F8011B89B181071C
:101D9000FAD10268B2F10131914311F0803F04BFE2
:101DA00050F8042FF6E710F8011B11B110F8011BD1
:101DB000FBE7C01A70470000C9B2830706D0521E65
:101DC00022D310F8013B9942F7D11FE0083A13D310
:101DD00002F1040241EA012141EA014150F8043BC9
:101DE000121F21BF4B40A3F1013C2CEA030C1CF055
:101DF000803FF3D0C9B2001F083210F8013B521ED9
:101E000028BF91EA030FF8D818BF0120401E704781
:101E10001B4213D1094236D12AB18446B0FBF2F0FD
:101E200002FB10C2704700F01FBCFCD3002200234D
:101E300070470B000200002100207047904271EBB8
:101E4000030CF6D370B5B1FA81F4B3FA83F52C1B09
:101E5000A340C4F1200532FA05F63343A2405FF0F7
:101E60000046E64002E05B085FEA3202841A71EB4A
:101E7000030524BF204629467641F4D302000B0017
:101E80003000002170BD012ACFD970B5140C20D0CC
:101E9000B1FA81F4B2FA82F5C4F120046419B4F104
:101EA0002006D6D3B2405FF00044F440002502E0A3
:101EB00052085FEA3303C61A71EB020E24BF3046A4
:101EC000714664416D41F3D302000B0020002900EC
:101ED00070BD0C46B1FBF2F102FB11452D0445EA41
:101EE0001045B5FBF2F402FB145580B240EA0545FB
:101EF000B5FBF2F002FB105240EA044070BD000056
:101F000062B38B0708D0521E11F8013B00F8013B69
:101F100000F024808B07F6D1830740F0208000BFBB
:101F2000103A07D330B4B1E83810103AA0E83810AE
:101F3000F9D230BC530724BFB1E80810A0E808105C
:101F400044BF51F8043B40F8043BD20724BF31F8AA
:101F5000022B20F8022B44BF0B7803707047083A1D
:101F600007D3B1E80810083A40F8043B40F804CB26
:101F7000F7D25307E4E730B4436803F0004201218D
:101F80001B031B0B436004BF0368002B08D10DE04B
:101F90000368DD0F45EA440444605B000360491EAA
:101FA0004468E302F4D523031B0B436043681A43E0
:101FB0004260084630BC70474FF4001C1CEB410FD8
:101FC00094BF1CEB430F09E041EA030C50EA4C0CB0
:101FD00052EA0C0C03D2994208BF9042704714BFDA
:101FE0008B42824270470000B0B581EA030C0CF0CE
:101FF000004C40F2FF7515EA11541DBF15EA135746
:10200000AC42AF4239E0E41923EA455343F480136C
:10201000C90241F0004141EA505EC7021100A7FB2E
:10202000020200284FF00000EEFB01204FF00001FB
:10203000E3FB072118BF42F001024018002149418B
:10204000E3FB0E01A4F580640F0302D2520040416D
:10205000494154F101046CDD470872F1004250F12E
:10206000000051EB0451A1F580115CBF41EA0C0165
:10207000B0BD4CEA05510020B0BD05EA1357AC4293
:1020800014BFAF4241E050EA410E1CBF52EA430E7A
:1020900002E061460020B0BD24423C441BD15FEA0F
:1020A000070EF6D0090302BF01460020AEF1140E60
:1020B000B1FA81F7AEEB070401FA07FE0C37C7F15E
:1020C000200100FA07F7C8404EEA000E23EA455304
:1020D00043F48013A2E733F00043B3FA83F704BF5D
:1020E000B2FA82FE77440B3FE41BB7F1200E2FBFFC
:1020F00002FA0EF3BB40C7F1200E22FA0EFE38BFE3
:1021000043EA0E03BA40641C82E750EA410E14BF52
:1021100052EA430E6FF000014FF4001717EB430F24
:102120008ABF194617EB410FB5E74CEA055100206D
:10213000B0BDD4F10104B4F120070FDAC4F12007D7
:10214000520828BF42F0010210FA07F501FA07F71A
:10215000E1BF2A43E0403843E1400FE0352C98DCF2
:10216000C7F1200452EA400220FA07F218BF42F0F9
:10217000010231FA07F0A1400A43002172F1004246
:1021800050F1000051EB0C01B0BD00002DE9F04111
:1021900040F2FF7581EA030C0CF0004C15EA115473
:1021A0001DBF15EA1357AC42AF42E9E0BC41C1F391
:1021B0001301C3F31303801A994143F4801304D22B
:1021C000641E4000494180185941C90241EA5051FA
:1021D000B1FBF3F603FB1611A2FB0675D7EBC0208B
:1021E000A94102D2761E80185941C90241EA5051D4
:1021F000B1FBF3FE03FB1E11A2FB0E75D7EBC02053
:10220000A94103D2AEF1010E80185941890241EA79
:102210009051760546EA8E2EB1FBF3F603FB1611BC
:10222000A2FB0675D7EB8020A94102D2761E80184A
:102230005941C90241EA50514EEA060EB1FBF3F68C
:1022400003FB1611A2FB0675D7EBC020A94102D2F1
:10225000761E80185941C90241EA5051B1FBF3F78B
:1022600003FB1711A2FB0735D3EBC020A94167F18F
:1022700000070CBF004247F0010766F3D5274FEA7D
:102280001E31B80814F5806414DDBD0775F10042F5
:1022900050EB0E5051EB045111F5801F5CBF41EA29
:1022A0000C01BDE8F0814CF07F6141F0E04100207D
:1022B000BDE8F081BD076D0840EA0E5041F4801181
:1022C000D4F10104B4F120060ADAC4F120060200B8
:1022D000E04001FA06F3E1401843B24015430EE036
:1022E000342C14DCC6F1200445EA40056D0820FAC0
:1022F00006F2154321FA06F0A1400D43002175F1C5
:10230000004250F1000051EB0C01BDE8F0810020CB
:102310005FEA0C01BDE8F081CFB992185B41B3FAD6
:1023200083F704BFB2FA82F6BF190B3FB7F120065C
:102330002FBF02FA06F3BB40C7F1200622FA06F6C9
:1023400038BF3343BA401CB1E419641E2FE77F4203
:1023500031F00041B1FA81F404BFB0FA80F6A4195B
:102360000B3CB4F120062FBF00FA06F1A140C4F1E6
:10237000200620FA06F638BF3143A0403C1B16E782
:10238000AC421ABF05EA1357AF4214E050EA4106C7
:102390001CBF52EA4306BFE750EA41073046614698
:1023A0001CBF41EA0551BDE8F08152EA430C08BF69
:1023B000C143BDE8F08100204FF4001616EB410F39
:1023C00098BF16EB430F08BF16EB410F24BFC14364
:1023D00005E016EB430F0CBF61464CEA0551BDE822
:1023E000F0810000F446400D40EAC120490006D2C9
:1023F00000F014F8004248BF6FF00040604700F062
:102400000DF84FF0004188428CBF084640426047BB
:10241000400D40EAC120490080F00D8040F00040AE
:10242000490DA1F58061491C05D4D1F11F0154BFAC
:10243000C840C01770474FF000007047010040F1DE
:102440000980F446404200F005F851F00041604731
:10245000010000BF09D0B0FA80F18840C91CC1F565
:102460008461090501EBD02140057047F0B44FF0BD
:10247000004591EA030F44BF6B4000F001B900BF73
:10248000841A71EB030604D26E40001BB14112198D
:1024900073414FF4001C1CEB410F34BF7CEB43062F
:1024A00084E00C0DA4EB1356362E7DDC012E43DCAC
:1024B00045EAC32343EA525312BFD20292025B0899
:1024C000240545EAC12141EA5051D2EBC02099418F
:1024D00025D407D1B0FA80F610FA06F164D00020B6
:1024E000203608E0B1FA81F6B140C6F1200220FAA8
:1024F00002F21143B0404FEAF474B4EB465434F0A6
:1025000001064FEA74040AD8D6F50016760D04F0D9
:102510000044F04061FA06F25040F1404840C00AE1
:1025200040EA415021F0004128BF5FEA500550F1D8
:10253000000044EBD12137E045EAC323DB0A45EA3A
:10254000C121C90AB6F120050EDD42EA0242120C91
:10255000C5F1200603FA06F6EB4042EA06056D4295
:10256000984161F100010DE062FA06F5F240554034
:1025700063FA06FC82EA0C02F3405A406D42904135
:1025800061EB030111F4801F05D1641E620502D0C6
:102590006D004041494121F48011430875F1004329
:1025A00050F1000041EB0451F0BC70471CEB410FAF
:1025B00015D223F0004352EA43060BD04FEA4C0CED
:1025C000BCEB410F04D80C0D661E342EB7DDEBE7D3
:1025D000801A994150EA410608BF0021E4E708BF8C
:1025E0001CEB430F28BF6FF00001DDE780B51348F7
:1025F00000F0B0F80FF24C020FF2440101604262A9
:1026000041600FF24402826381600FF24402C160B4
:102610000161416181618162C16201634163C263A1
:102620000164416401BD10B5044800F093F804460C
:10263000206808B9FFF7DAFF204610BDFC19FF1F1C
:10264000000000002E00000066616C736500000051
:10265000747275650000000091FBF2F303FB121128
:10266000C0E900317047000070470000F0B44FF03F
:10267000004591EA030C44BF6B40FFF701BF00BF68
:10268000841A71EB030603D2001BB1411219734186
:102690004FF4001C1CEB410F34BF7CEB430443E0C0
:1026A0000C0DA4EB1356352E50DC45EAC323DB0A90
:1026B00045EAC121C912B6F120050DDD63FA05F620
:1026C000EB4086EA0305124218BF45F00105C01829
:1026D00051F100010CD213E062FA06F5F2405540C8
:1026E000F3415A40B340F3405A408018594107D350
:1026F00049085FEA30005FEA350528BF45F001056B
:1027000001F58011420875F1004250F1000041EBE3
:102710000451F0BC4FF4001C1CEB410F38BF704754
:102720000020090D090570471CEB410F10D252EA39
:1027300043060BD0BCEB410F05D80C0DAB43661E16
:10274000342EB5DD02E0AB4380185941F0BC704730
:10275000F0BC7047704700000022C9B2022904D1C2
:1027600003781A00437803704270C9B2042909D172
:1027700003781A00C3780370C27043781A00837814
:1027800043708270704770477047704770470028E9
:10279000FFD070472DE9F04104000D00002C18D047
:1027A000ADB2002D15D00221A01DFFF7D5FF0226E6
:1027B000A71DDFF8AC88320039004046FFF7A0FBC8
:1027C000DFF8A0080089152803DB1420DFF894182F
:1027D0000881BDE8F08138B504000D00002C0AD056
:1027E000ADB2002D07D0A079E17951EA002001288F
:1027F00001D100F0A0FE31BD2DE9F04104000D0033
:10280000002C11D0ADB2002D0ED00221A01DFFF77B
:10281000A3FF0226A71DDFF850883200390040468A
:10282000FFF76EFB00F09CFCBDE8F0812DE9F04164
:1028300004000D00002C11D0ADB2002D0ED00221ED
:10284000A01DFFF789FF0226A71DDFF820883200B0
:1028500039004046FFF754FB00F082FCBDE8F081F0
:102860002DE9F04104000D00002C11D0ADB2002D77
:102870000ED00221A01DFFF76FFF0226A71DDFF873
:10288000F087320039004046FFF73AFB00F068FC61
:10289000BDE8F0812DE9F04104000D00002C11D0BD
:1028A000ADB2042D0ED10421A01DFFF755FF042663
:1028B000A71DDFF8C087320039004046FFF720FB34
:1028C00000F04EFCBDE8F0812DE9F04104000D0060
:1028D000002C11D0ADB2042D0ED10421A01DFFF7A4
:1028E0003BFF0426A71DDFF89087320039004046E1
:1028F000FFF706FB00F034FCBDE8F0812DE9F0475E
:1029000004000D00002C35D0ADB2042D32D10221CF
:10291000A01DFFF721FF0226A71DDFF86087320008
:1029200039004046FFF7ECFA022114F10800FFF7E6
:1029300013FF5FF0020814F10809DFF844A74246CC
:1029400049465046FFF7DCFADFF83807B0F92401B2
:10295000DFF83017B1F92211884209DBC820DFF80F
:102960002417A1F822010020DFF81817A1F824018C
:1029700000F0F6FBBDE8F0872DE9F04704000D00FC
:10298000002C35D0ADB2042D32D10221A01DFFF7AD
:10299000E3FE0226A71DDFF8F0863200390040462C
:1029A000FFF7AEFA022114F10800FFF7D5FE5FF041
:1029B000020814F10809DFF8D4A6424649465046F9
:1029C000FFF79EFADFF8BC06B0F91E01DFF8B41677
:1029D000B1F91E11884209DB6420DFF8A816A1F8BE
:1029E0001E010020DFF89C16A1F81E0100F0B8FBC4
:1029F000BDE8F0872DE9F04104000D00002C0FD058
:102A0000ADB2022D0CD10221A01DFFF7A5FE0226BA
:102A1000A71DDFF87C86320039004046FFF770FAC8
:102A2000BDE8F0812DE9F84304000D00002C20D012
:102A3000ADB2CA2D1DD100200600F6B2652E18DAFF
:102A40000221F6B214EB4600801DFFF785FE022737
:102A5000F6B214EB460010F10608DFF82806F6B2CD
:102A600010EB46093A0041464846FFF749FA761C02
:102A7000E3E7BDE8F1832DE9F84304000D00002CE5
:102A800022D0ADB2222D1FD100200600F6B2112EA9
:102A90001ADA0221F6B214EB46000830FFF75CFEAA
:102AA0000227F6B214EB460010F10608DFF8D40551
:102AB000F6B210EB460010F1FC093A0041464846D8
:102AC000FFF71EFA761CE1E7BDE8F1832DE9F84334
:102AD00004000D00002C22D0ADB2222D1FD1002009
:102AE0000600F6B2112E1ADA0221F6B214EB4600F5
:102AF000801DFFF731FE0227F6B214EB460010F1FD
:102B00000608DFF88005F6B210EB460010F1D20996
:102B10003A0041464846FFF7F3F9761CE1E7BDE885
:102B2000F1832DE9F84304000D00002C21D0ADB253
:102B3000CA2D1ED1657000200600F6B2652E18DA87
:102B40000227DFF84005F6B210EB4608F6B214EBA8
:102B5000460010F102093A0041464846FFF7D0F915
:102B60000221F6B214EB4600801CFFF7F5FD761C3F
:102B7000E3E7BDE8F1832DE9F84304000D00002CE4
:102B800023D0ADB2222D20D1657000200600F6B210
:102B9000112E1ADA0227DFF8EC04F6B210EB460029
:102BA00010F1FC08F6B214EB460010F102093A00ED
:102BB00041464846FFF7A4F90221F6B214EB46005D
:102BC000801CFFF7C9FD761CE1E7BDE8F1832DE924
:102BD000F84304000D00002C23D0ADB2222D20D1EB
:102BE000657000200600F6B2112E1ADA0227DFF80F
:102BF0009404F6B210EB460010F1D208F6B214EBD2
:102C0000460010F102093A0041464846FFF778F9BC
:102C10000221F6B214EB4600801CFFF79DFD761CE6
:102C2000E1E7BDE8F1832DE9F04104000D00002C3F
:102C300011D0ADB2022D0ED165700226DFF82074DE
:102C400014F10208320039004046FFF759F9022119
:102C5000A01CFFF781FDBDE8F0812DE9F0410400E3
:102C60000D00002C11D0ADB2042D0ED165700426DC
:102C7000DFF8207414F10208320039004046FFF7F3
:102C80003FF90421A01CFFF767FDBDE8F0812DE9A5
:102C9000F04104000D00002C11D0ADB2042D0ED176
:102CA00065700426DFF8BC7314F1020832003900A5
:102CB0004046FFF725F90421A01CFFF74DFDBDE8B4
:102CC000F0812DE9F04104000D00002C11D0ADB2CF
:102CD000042D0ED165700426DFF8987314F10208F4
:102CE000320039004046FFF70BF90421A01CFFF722
:102CF00033FDBDE8F081002803D089B2042900D15A
:102D0000417070472DE9F04104000D00002C10D0F7
:102D1000ADB2042D0DD165700426D74F14F1020811
:102D2000320039004046FFF7EBF80421A01CFFF702
:102D300013FDBDE8F0812DE9F04704000D00002CE3
:102D40001FD0ADB2042D1CD165700226CE4F14F1F8
:102D50000208320039004046FFF7D2F80221A01CD9
:102D6000FFF7FAFC5FF00208DFF8209314F1040A81
:102D7000424649465046FFF7C3F80221201DFFF79F
:102D8000EBFCBDE8F0872DE9F04704000D00002CB6
:102D90001FD0ADB2042D1CD165700226B74F14F1BF
:102DA0000208320039004046FFF7AAF80221A01CB1
:102DB000FFF7D2FC5FF00208DFF8C49214F1040AB6
:102DC000424649465046FFF79BF80221201DFFF777
:102DD000C3FCBDE8F0872DE9F04F87B004000D007B
:102DE000002C5DD0ADB2162D5AD16570042006902E
:102DF000A9480590A61C069A05993000FFF780F8AF
:102E00000421A01CFFF7A8FC04200490A348039011
:102E1000A61D049A03993000FFF772F80421A01D43
:102E2000FFF79AFC042002909D48019014F10A06D5
:102E3000029A01993000FFF763F8042114F10A00A7
:102E4000FFF78AFC04200090964E14F10E07009ABA
:102E500031003800FFF754F8042114F10E00FFF799
:102E60007BFC0427DFF8408214F112093A00414646
:102E70004846FFF745F8042114F11200FFF76CFCF7
:102E80005FF00209DFF824A214F1160B4A465146FE
:102E90005846FFF735F8022114F11600FFF75CFCE5
:102EA00007B0BDE8F08F2DE9F04104000D00002CC3
:102EB00010D0ADB2022D0DD1657002266A4F14F10B
:102EC0000208320039004046FFF71AF80221A01C20
:102ED000FFF742FCBDE8F0812DE9F04104000D0050
:102EE000002C10D0ADB2022D0DD165700226684FB6
:102EF00014F10208320039004046FFF701F80221C0
:102F0000A01CFFF729FCBDE8F0812DE9F041040089
:102F10000D00002C10D0ADB2022D0DD1657002262F
:102F2000524F14F10208320039004046FEF7E8FF24
:102F30000221A01CFFF710FCBDE8F0812DE9F04153
:102F400004000D00002C10D0ADB2022D0DD1657023
:102F50000226474F14F10208320039004046FEF7BE
:102F6000CFFF0221A01CFFF7F7FBBDE8F0817047FF
:102F70007047F8B504000D0000261127002C14D06E
:102F8000ADB2002D11D06570002006003000C0B237
:102F900080B2ADB2A84205D2F6B2301987707F1C5C
:102FA000761CF3E7424800F0AFFBF1BD417070477B
:102FB000FCB4002445250026EDB2E4B22A1B022A07
:102FC00011DBE4B254FA85F2022392FBF3F216000D
:102FD000384AF6B212F83620C9B2914201D2350011
:102FE000EAE73400E8E7334AE4B212F83420C9B221
:102FF0008A4203D0002201928DF800102D4AE4B2DB
:1030000012EBC407D7E90023CDE90023DDE9002353
:10301000C0E90023F6BC704702006520D2B213005D
:10302000032B06D0102B09D0212B0CD0222B0FD034
:1030300013E0214BC9B2CB5C18000EE01F4BC9B2A4
:10304000CB5C180009E01E4BC9B2CB5C180004E051
:103050001C4BC9B2CB5C1800FFE7C0B27047000040
:103060008019FF1F7819FF1F6A19FF1F6C19FF1FB6
:103070006E19FF1F7019FF1F7419FF1F6619FF1FBC
:103080006819FF1F4418FF1F6219FF1F6419FF1FF3
:103090008219FF1F7C19FF1FC413FF1FC813FF1FD6
:1030A000CC13FF1FD413FF1FD013FF1FE419FF1F02
:1030B000C4740000A8680000FC720000D474000012
:1030C0002474000018730000DFF800F07911FF1F6E
:1030D000DFF800F0A911FF1FDFF800F08F12FF1FCB
:1030E00030B404000025A4B24FF4006089B200FBA4
:1030F000041005001000421E80B2002804D0287879
:1031000018705B1C6D1CF5E7012030BC704780B562
:10311000FFF7DAFF01BD5FF4FF200078C0B2552849
:1031200001D1012000E00020704780B5FF20FFF7AB
:10313000CFFFDFF860354FF448720021FF20FFF722
:10314000CBFFDFF8540500F0DFFA01BD80B5DFF8F2
:1031500044354FF448720021FF20FFF7C1FF01BD45
:103160002DE9F04F8DB000245520DFF828150870A8
:103170000020DFF82015487000200400E4B2652C20
:1031800019DADFF81805E4B230F81400DFF8041596
:10319000E4B211EB44018870DFF80005E4B230F8C6
:1031A000140080B2000ADFF8EC14E4B211EB440121
:1031B000C870641CE2E700200400E4B2152C1FDA9A
:1031C000DFF8D804E4B210EB4400B0F8F400DFF804
:1031D000C414E4B211EB440181F8CC00DFF8BC0464
:1031E000E4B210EB4400B0F8F40080B2000ADFF85B
:1031F000A414E4B211EB440181F8CD00641CDCE7B7
:1032000000200400E4B2152C1FDADFF89004E4B2C9
:1032100010EB4400B0F8CA00DFF87814E4B211EB08
:10322000440181F8F600DFF87404E4B210EB4400C6
:10323000B0F8CA0080B2000ADFF85814E4B211EB0B
:10324000440181F8F700641CDCE702200B90DFF8F2
:1032500050040A90DFF84C540B9A0A992800FEF7A4
:103260004FFE02200990DFF840040890DFF83C543C
:10327000099A08992800FEF743FE02200790DFF81C
:1032800030040690DFF82C54079A06992800FEF7C0
:1032900037FE02200590DFF820040490DFF81C546C
:1032A000059A04992800FEF72BFE02200390DFF810
:1032B00010040290DFF80C54039A02992800FEF7DC
:1032C0001FFE02200190DFF800040090DFF8FC539D
:1032D000019A00992800FEF713FE0225DFF8F0633B
:1032E000DFF8F0732A0031003800FEF709FE0427EA
:1032F000DFF8E483DFF8E4933A0041464846FEF7FE
:10330000FFFD5FF00409DFF8D8A3DFF8D8B34A4621
:1033100051465846FEF7F4FDFFF707FF0DB0BDE834
:10332000F08F2DE9F04F8DB00024FFF70FFF002044
:103330000400E4B2652C12DA0225DFF85803E4B287
:1033400010EB4400861CDFF85403E4B210EB440792
:103350002A0031003800FEF7D3FD641CE9E70020A5
:103360000400E4B2152C13DA0225CA48E4B210EBCB
:10337000440010F1F606C948E4B210EB440010F125
:10338000F4072A0031003800FEF7BAFD641CE8E7B4
:1033900000200400E4B2152C13DA0225BD48E4B283
:1033A00010EB440010F1F606BC48E4B210EB440008
:1033B00010F1CA072A0031003800FEF7A1FD641C95
:1033C000E8E702200B90B7480A90B54D0B9A0A998E
:1033D0002800FEF795FD02200990B4480890B24DF0
:1033E000099A08992800FEF78BFD02200790B14842
:1033F0000690AF4D079A06992800FEF781FD02203E
:103400000590AE480490AC4D059A04992800FEF74B
:1034100077FD02200390AB480290A94D039A0299D0
:103420002800FEF76DFD02200190A8480090A64DEF
:10343000019A00992800FEF763FD0225A54EA44FCE
:103440002A0031003800FEF75BFD0427DFF88C828C
:10345000DFF884923A0041464846FEF751FD5FF09E
:103460000409DFF880A2DFF878B24A465146584690
:10347000FEF746FD9C4800F047F90DB0BDE8F08F1F
:1034800010B5002400200400E4B2652C09DA974846
:10349000E4B230F814008149E4B221F81400641C4D
:1034A000F2E700200400E4B2152C0BDA9048E4B2F5
:1034B00030F814007949E4B211EB4401A1F8F400AA
:1034C000641CF0E700200400E4B2152C0BDA8948F4
:1034D000E4B230F814007149E4B211EB4401A1F8F0
:1034E000CA00641CF0E764206C49A1F81E010020AA
:1034F0006A49A1F82001C8206849A1F822010020EA
:103500006649A1F8240101206449A1F8280103209B
:103510006249A1F82A0101206049A1F826017648F4
:103520005E49C1F82C0175485C49C1F83001744806
:1035300000F0EAF810BD2DE9F04F8DB00024FFF740
:103540009FFF002053490870002052494870002016
:103550000400E4B2152C1BDA5048E4B210EB44002E
:10356000B0F8F4004B49E4B211EB440181F8CC000F
:103570004A48E4B210EB4400B0F8F40080B2000A0C
:103580004449E4B211EB440181F8CD00641CE0E74A
:1035900000200400E4B2152C1BDA4048E4B210EB22
:1035A0004400B0F8CA003B49E4B211EB440181F891
:1035B000F6003A48E4B210EB4400B0F8CA0080B21A
:1035C000000A3449E4B211EB440181F8F700641CAD
:1035D000E0E702200B9032480A90324D0B9A0A998C
:1035E0002800FEF78DFC022009902F4808902F4DEF
:1035F000099A08992800FEF783FC022007902C48BE
:1036000006902C4D079A06992800FEF779FC0220B7
:10361000059029480490294D059A04992800FEF741
:103620006FFC0220039026480290264D039A0299CF
:103630002800FEF765FC0220019023480090234DEE
:10364000019A00992800FEF75BFC0225204E214FCD
:103650002A0031003800FEF753FC0427DFF8788099
:10366000DFF878903A0041464846FEF749FC5FF0A3
:103670000409DFF86CA0DFF86CB04A4651465846A2
:10368000FEF73EFCFFF751FD1E4800F03DF80DB07F
:10369000BDE8F08F2415FF1FB87300004418FF1F0A
:1036A0006219FF1F4416FF1F6419FF1F4616FF1FF4
:1036B0006619FF1F4816FF1F6819FF1F4A16FF1FD4
:1036C0006C19FF1F4C16FF1F6E19FF1F4E16FF1FB0
:1036D0006A19FF1F5016FF1F7019FF1F5216FF1F98
:1036E0007419FF1F5616FF1FD07300001004FF1F30
:1036F0000805FF1FDC04FF1F00917E3E33B38BC320
:103700006C730000E87300000EB400B582B003A92A
:103710000091024600AB0121034878440A30FDF7CE
:1037200017FD06BC5DF810FBD93C000038B504005D
:1037300000252000DFF8C41600F09EFB02D8002010
:1037400005000DE0DFF8B806D0F82C01210000F0EC
:10375000A5FBDFF8AC16D1F8301100F00BFC05002A
:103760002800002100F048FC01D2002005002800BC
:10377000DFF8901600F080FB02D8DFF88C06050019
:10378000280032BD2DE9F04D04005FF0000800254F
:1037900064263227DFF86806FFB230F81700A4B2BB
:1037A000A04201D23D000AE0DFF85406FFB230F833
:1037B0001700A4B2844201D23E0000E019E0F6B244
:1037C000EDB2701B012801D12F0012E0F6B256FABB
:1037D00085F0FEF733FE0022DFF83036FEF704FCFA
:1037E00000225FF08043FEF7D1FCFEF7FBFD0700EF
:1037F000D0E7A4B2DFF80806FFB230F81700201AAD
:10380000FEF71CFE0022DFF80436FEF7EDFB8246D1
:103810008B46DFF8EC05FFB210EB47004088DFF87D
:10382000E015FFB231F81710401AFEF707FE02004C
:103830000B0050465946FEF7A9FC82468B46FFB264
:103840003800FEF705FE52465B46FEF70FFF0022EA
:10385000DFF8B835FEF7C8FB00F0E0FB80464046D5
:10386000BDE8F08DF8B504000D000026DFF8A005D6
:103870000068290000F012FBDFF89815096800F0D5
:1038800079FB210000F00AFB290000F073FB070020
:10389000DFF884050068290000F000FBDFF87C15E4
:1038A000096800F067FB390000F064FB0600300097
:1038B000F2BD2DE9F8430400002500260027200072
:1038C000002100F099FB01D2002004002000DFF865
:1038D000501500F0D1FA02D8DFF848050400DFF8EF
:1038E0002005B0F9200100F0E1FB0100200000F00C
:1038F000F7FB00F069FC0022DFF81035FEF774FBDF
:1039000080468946DFF8F804B0F91E01DFF8F014AC
:10391000B1F92011401AFEF791FD02000B0040465C
:103920004946FEF733FC0022DFF8FC34FEF75CFB6F
:103930000022DFF8F834FEF799FE00F06FFB050077
:10394000280000F069FC0700BFB2042F04DADFF89A
:10395000B004B0F8FC003DE0BFB2142F04DBDFF888
:10396000A004B0F81C0135E0BFB2380000F0A8FB9D
:103970000100280000F0B4FB8046DFF88404BFB2E9
:1039800010EB4700B0F8F600DFF87414BFB211EB8B
:103990004701B1F8F410401A00F088FB414600F0EE
:1039A0007DFA8046DFF85804BFB210EB4700B0F84C
:1039B000F40000F085FB414600F0DCFA00F004FC66
:1039C0000022DFF86C34FEF751FEFEF70BFD060017
:1039D000300080B2BDE8F2832DE9F84304000025F1
:1039E00000260027DFF81804B0F9240100F05EFB80
:1039F0000100200000F074FB00F0E6FB0022DFF87D
:103A00000C34FEF7F1FA80468946DFF8F403B0F98A
:103A10002201DFF8EC13B1F92411401AFEF70EFD74
:103A200002000B0040464946FEF7B0FB0022DFF8DB
:103A3000F833FEF7D9FA0022DFF8F033FEF716FE6E
:103A400000F0ECFA0500280000F0E6FB0700FFB2EA
:103A5000042F04DADFF8A803B0F8D20039E0FFB28F
:103A6000142F04DBDFF89803B0F8F20031E0FFB266
:103A7000380000F025FB0100280000F031FB8046F3
:103A8000DF48FFB210EB4700B0F8CC00DC49FFB2D2
:103A900011EB4701B1F8CA10401A00F007FB41468C
:103AA00000F0FCF98046D648FFB210EB4700B0F8B2
:103AB000CA0000F005FB414600F05CFA00F084FB10
:103AC0000022DB4BFEF7D2FDFEF78CFC0600300037
:103AD00080B2BDE8F2832DE9F04D80460024002538
:103AE00000260027D348006800F06EFBDFF848C3CB
:103AF000DCE90023FEF7BAFD00F090FA0700380079
:103B000000F062FB0022C14BFEF76EFA82468B4644
:103B1000380000F059FBDFF824C3DCE90023FEF78E
:103B2000A5FD02000B0050465946FEF72FFB00F0A2
:103B300075FA04005FF07E50210000F0D1FA3900E0
:103B400000F0ACF90600404600F0BAFABC4909683A
:103B500000F0C6FA210000F0A1F9B949096800F0A7
:103B600009FA0500B6480560B24806602800BDE8BD
:103B7000F08D2DE9F04D8046002400250026002719
:103B8000B048006800F020FBDFF8ACC2DCE900239D
:103B9000FEF76CFD00F042FA0700380000F014FB5D
:103BA00000229A4BFEF720FA82468B46380000F03E
:103BB0000BFBDFF888C2DCE90023FEF757FD0200AB
:103BC0000B0050465946FEF7E1FA00F027FA0400D0
:103BD0005FF07E50210000F083FA390000F05EF9BA
:103BE0000600404600F06CFA9749096800F078FA40
:103BF000210000F053F99449096800F0BBF9050071
:103C0000914805608F4806602800BDE8F08D2DE9D9
:103C1000F04D804600240025002600278B480068D0
:103C200000F0D2FADFF828C2DCE90023FEF71EFD1F
:103C300000F0F4F90700380000F0C6FA0022734BD8
:103C4000FEF7D2F982468B46380000F0BDFADFF865
:103C500004C2DCE90023FEF709FD02000B00504618
:103C60005946FEF793FA00F0D9F904005FF07E5050
:103C7000210000F035FA390000F010F90600404646
:103C800000F01EFA7449096800F02AFA210000F0D9
:103C900005F97149096800F06DF905006E48056085
:103CA0006A4806602800BDE8F08D2DE9F04D804699
:103CB00000240025002600276848006800F084FAE8
:103CC000DFF89CC1DCE90023FEF7D0FC00F0A6F988
:103CD0000700380000F078FA00224C4BFEF784F918
:103CE00082468B46380000F06FFADFF878C1DCE9D5
:103CF0000023FEF7BBFC02000B0050465946FEF7BE
:103D000045FA00F08BF904005FF07E50210000F0CE
:103D1000E7F9390000F0C2F80600404600F0D0F99B
:103D20005149096800F0DCF9210000F0B7F84E496C
:103D3000096800F01FF905004B4805604748066018
:103D40002800BDE8F08D2DE9F04D04000025002687
:103D50005FF000080027454800680B2844DB444812
:103D6000006800F031FADFF8F8C0DCE90023FEF764
:103D70007DFC00F053F90700380000F025FA00221E
:103D8000224BFEF731F982468B46380000F01CFAD0
:103D9000DFF8D0C0DCE90023FEF768FC02000B006E
:103DA00050465946FEF7F2F900F038F905005FF089
:103DB0007E50290000F094F9390000F06FF8804639
:103DC00020002C49096800F08BF9290000F066F802
:103DD0002849096800F0CEF8060026480660244805
:103DE000C0F80080300007E020480068401C1F49F0
:103DF0000860204804602000BDE8F08D01803B454C
:103E00004418FF1F01004843000048430000F03FF2
:103E10004075000044750000487500004C750000B6
:103E20000100C8420000C8420000304000001040BD
:103E30000000E03F3805FF1F1075000018750000F6
:103E40003405FF1F4005FF1F3C05FF1F4805FF1FEE
:103E500020750000287500004405FF1F5005FF1F56
:103E600030750000387500004C05FF1FD813FF1F88
:103E70005805FF1F5405FF1F4FF0807C1CEB400FBF
:103E800094BF1CEB410F05E040EA010C5FEA4C0CCB
:103E900001D28142704718BF88427047FF2212EA60
:103EA000D05C1DBF12EAD153944593422BE09C4451
:103EB000D30780EA01021A4043EA002043EA0121C5
:103EC000A1FB0030410038BF40007CF17F010BDBDB
:103ED000FE294ADA5B0842EAC15153EA006373F1F2
:103EE000004C51EB10207047D1F1080CDCF120019F
:103EF0002FDB5B0810FA01F10B4373F1004120FA4C
:103F00000CF05041704794451CBF02EAD1539342D4
:103F100080EA010202F000421DD0400019D04900A1
:103F200017D05BB9634514D00902B1FA81F3994007
:103F3000BCEB030CC00140F00040C1E70002B0FA46
:103F400080FC10FA0CF0B3EB0C0CC90141F00041FD
:103F5000B6E71000704740000AD0490008D010F1C1
:103F6000807F94BF11F1807F02E042F0FF407047F4
:103F7000D043704790EA010F44BF81F0004100F048
:103F8000B7B800BF421A3CBF801A89184FF0004CE6
:103F9000C0F3C752FF2A24D0C1F3C75313B3D21AB8
:103FA000D2F1190327DD4CEA01214CFA03F321EA8F
:103FB0000303D140C20D4CEA0020401834BF20EA70
:103FC0000C004CEA5000D20553EA006373EB0C0C72
:103FD00052EB1020420012F1807F38BF7047C00DB5
:103FE000C0057047490212BF9A4200EB5120F8E722
:103FF000D2F11703D9D570474FF0807C1CEB400FEE
:1040000094BF1CEB410F05E040EA010C5FEA4C0C49
:1040100001D28842704718BF814270474FEAF17C55
:10402000BCF1E04C2CBFBCF5001F11E05FEA4C0C6A
:1040300034BFBCF17F5F2EE05FEA9C0C4FEA0C1CA2
:104040004FEA3C0CC10071F100414CEB50707047DD
:10405000C90241EA5051C00218BF41F0010141F0CC
:1040600000414FEA6C50C0F10900212810D240EA0B
:10407000CC7CCCF1200C11FA0CF070F10040CCF1AA
:10408000200C21FA0CF00CF0004C40EB0C007047B7
:104090004FEACC707047490011F5001F04D84FEA71
:1040A000CC10FF30C0057047C8177047002840F19A
:1040B0000980F446404200F005F850F000406047A7
:1040C000002800BF0AD0B0FA80F18840D1F19D01EC
:1040D000C905020672F1004241EB10207047000052
:1040E00090EA010F44BF81F00041FFF74BBF00BFD2
:1040F000431A4FF000423EBF5340C01AC91800BFD8
:10410000D3095FEAD05C13EB400F34BFB3EB410F30
:1041100040E07CEBD1530CD342EA012122D8D1EB11
:10412000402009D3400A28BF5FEA500140EBCC5041
:104130007047401A15D04002B0FA80F2521C9040ED
:10414000400A4FEA3C23B3EB026384BF00EB7300E9
:1041500007E040F400001A16DB07C2F10102D0406C
:1041600018437047182BFCDC31FA03F202FA03F310
:10417000591A38BF42F00102D2EB40203CBF400048
:10418000ACF1010C5FEACC5CC20572F100414CEB72
:104190005020704713EB400F0FD24B0009D0ACEB0F
:1041A000D153022B03DB4902172BDDDD704791430E
:1041B000401A4300D5D10020704713EB410FD0D3F4
:1041C0006FF00000704700005FF0FF0C1CEAD05158
:1041D00014BF614506E0C110400721F0E04101F144
:1041E0006051704779B900F0004100020AD0B0FA7E
:1041F00080FC00FA0CF001F16051A1EB0C5101EBD5
:10420000D0214005704741020CBF40F4E0016FF03F
:1042100000010020704700004100090E7F3915D4CD
:10422000D1F11F0114D4400007D2C00140F000407A
:10423000C84048BF6FF000407047C00140F00040E8
:10424000C8404CBF4FF000404042704700207047CC
:1042500000424FF0004058BFC043704710F00702C3
:10426000DFF854351B6819004FF6FF031940DFF8DB
:104270004C3553EA02231943DFF83C351960704787
:10428000012110F01F029140DFF8342540B24309AC
:1042900042F82310704710B440B2002809D50A0133
:1042A000DFF8203540B210F00F04E31803F8042CB7
:1042B00004E00A01DFF8103540B2C25410BC704768
:1042C00080B500220121352000F0B8FA01BD10B5FB
:1042D0000400E4B2002C04D10021352000F005FBDD
:1042E00003E00121352000F000FB10BD80B5002265
:1042F00001210E2000F0A2FA002201210F2000F07F
:104300009DFA00220121102000F098FA01210E20D0
:1043100000F0EBFA01210F2000F0E7FA0121102054
:1043200000F0E3FA01BD70B504000025260001216C
:104330000F2000F0DAFA00210E2000F0D6FA00205B
:104340000500EDB2102D27DA300404D5012110202C
:1043500000F0CBFA03E00021102000F0C6FA0021A3
:104360000F2000F0C2FADFF8640400684FF47A719D
:1043700090FBF1F000F034FB760001210F2000F0FB
:10438000B4FADFF8480400684FF47A7190FBF1F05A
:1043900000F026FB6D1CD4E701210F2000F0A5FAE8
:1043A00001210E2000F0A1FA70BD0020DFF82014DA
:1043B00088810020DFF8181408600020DFF810144E
:1043C00008810020DFF8081448600020DFF800149E
:1043D000488170472DE9FE4F00208DF80800012428
:1043E00000200190002000905FF0000B5FF0000AB9
:1043F0000025002600270320FFF730FFFFF760FFAE
:1044000000F020FB002000F025FB012000F022FB43
:10441000022000F01FFB0121002000F038FB0121E9
:10442000012000F034FB0021022000F030FB0123CA
:1044300001220621002000F0EFFBC4A0FFF764F981
:1044400000F0E8FCFFF752FF0FF205314E2000F0BC
:104450001CFE03213E20FFF71EFF3E20FFF710FF4A
:10446000FFF7A3FFFEF753FEFEF755FE012802D12A
:10447000FEF757FF01E0FFF703F84FF47A7000F002
:10448000CAFAB2A0FFF740F900F018FF00F08CFF65
:10449000CF484089002808D00021012000F0F7FA19
:1044A0000121022000F0F3FA07E00121012000F0D1
:1044B000EEFA0021022000F0EAFA012000F0B4FD3B
:1044C00080B2FFF708FBC3490860022000F0ACFD92
:1044D00080B2FFF74EFBC0490860BE480068BF4984
:1044E000FFF7DCFCBC49096801F018F8BC4908601A
:1044F000BB480068FFF71AF90500BA48B44948609C
:104500002800FFF769FA82460C20B1490881B048BB
:10451000008900280ED0B448AD49098910EB41004C
:10452000B0F8CA000005000D50F4A04080B2FFF7BB
:10453000FAFE07E05FEA0A50000D50F4A04080B296
:10454000FFF7F1FEA948006800289FD00020FFF780
:10455000BEFE142000F05FFA0020A449086000208D
:10456000A3490860A3480068C06850F04000A14912
:104570000968C8609D4800680028FBD09B48006817
:10458000FFF745FBFFF720FE00229B4BFEF76EF87E
:10459000FDF73EFF99490860994800684FF47A7129
:1045A0004843964909684900B0FBF1F000900120AA
:1045B000FFF78DFE142000F02EFA00208B490860D2
:1045C00000208B4908608B480068C06850F04000AC
:1045D00088490968C860854800680028FBD083487E
:1045E0000068FFF762FBFFF7EFFD0022824BFEF74A
:1045F0003DF8FDF70DFF83490860814800684FF4DE
:104600007A7148437F4909684900B0FBF1F0019095
:104610007C480068FDF71CFF00227B4BFDF7E4FCA3
:104620008046894675480068FDF712FF02000B00BE
:1046300040464946FDF7AAFD0022744BFDF7D4FC25
:1046400000226D4BFEF712F8FDF7CCFE7049088092
:104650006F480088FFF796F8060031002800FFF742
:1046600001F907003800FFF76EFB07006948584959
:1046700008603800FFF71DF9834608205449088177
:104680005348008900280ED057485149098910EB3A
:104690004100B0F8F4000005000D50F4404080B235
:1046A000FFF741FE07E05FEA0B50000D50F4404079
:1046B00080B2FFF738FE02A9032001F052F99DF9FC
:1046C000080054287FF4E2AE64B221005248FFF79C
:1046D0001BF8641C3F480068FFF776FD0022464B3C
:1046E000FDF7C4FFFDF77EFE80B201004B48FFF7E7
:1046F0000BF839480068FFF767FD00223E4BFDF7D5
:10470000B5FFFDF76FFE80B201004548FEF7FCFFE4
:10471000334800684349FFF7C1FBFFF77DFD80B2D6
:1047200001004148FEF7F0FF01994048FEF7ECFF19
:1047300000993F48FEF7E8FF354801883D48FEF7FD
:10474000E3FF1CA0FEF7E0FFA0E600004100000030
:1047500038B5274804680020254908600620050070
:104760000120A8402100C9B2014221D0324800787E
:10477000002808D130480078401C2F4908700020DC
:1047800000F02EFB14E02C480078012810D10621FF
:10479000002000F007FB154908600020264908703A
:1047A00014480068C06830F0400012490968C860C9
:1047B00031BD00000A0000000CED00E00000FA0529
:1047C00000E100E018ED00E000E400E08819FF1FC0
:1047D0007819FF1FC413FF1FC813FF1F00007A447E
:1047E000CC13FF1F85EBAF414418FF1FC013FF1F01
:1047F000508003406810FF1F0000E03FD013FF1FF0
:104800009019FF1FD413FF1F0000F03F0088C34022
:10481000E419FF1FC1CAF441F071000038740000B0
:104820004C740000000020416074000074740000AB
:10483000887400009C740000EE19FF1F70B504001E
:104840000D0016004FF480712000C0B201F01EF977
:104850006DB2002D11D16048E4B2611150F8210011
:104860005D49E4B2621151F822104969012214F045
:104870001F039A409143416136E05748E4B2611109
:1048800050F821005449E4B2621151F822104969EC
:10489000012214F01F039A4011434161F6B2002E29
:1048A00011D14D48E4B2611150F821000068012196
:1048B00014F01F02914088434749E4B2621151F855
:1048C0002210086010E04448E4B2611150F8210061
:1048D0000068012114F01F02914008433E49E4B2F0
:1048E000621151F82210086070BD38B504000D0047
:1048F0003948E4B2611150F82100406914F01F01F9
:104900000200CA40D00703D45921344801F023F9EA
:10491000EDB2002D11D13048E4B2611150F8210000
:104920000068012114F01F02914088432A49E4B233
:10493000621151F82210086010E02748E4B26111BA
:1049400050F821000068012114F01F029140084333
:104950002149E4B2621151F82210086031BD10B54E
:1049600004001D48E4B2611150F82100406914F0C0
:104970001F010200CA40D00703D47121174801F07B
:10498000EAF81548E4B2611150F82100012114F051
:104990001F029140C16010BD10B504000E48E4B282
:1049A000611150F82100406914F01F010200CA4053
:1049B000D00703D58221094801F0CDF80648E4B2BA
:1049C000611150F82100006914F01F010200CA4073
:1049D00012F0010010BD00007410FF1F987000005D
:1049E00010B50400002C15D0B4F1807F03D31F2133
:1049F0000F4801F0B0F800200E4908600E4804602E
:104A000000200E49086005200A490860094800682E
:104A1000C003FBD510BD10B504002000441E0028C3
:104A200004D007480068FFF7DBFFF6E710BD000081
:104A3000BC6F000010E000E014E000E018E000E0CF
:104A40008819FF1F80B5002200212720FFF7F6FEFE
:104A500001BD000010B5040064B2032C07DA012286
:104A60000121264864B2205CFFF7E8FE0EE0032037
:104A700004002000441E40B2002807D0012201217A
:104A80001E4864B2205CFFF7D9FEF2E710BD38B5CE
:104A900004000D0064B2032C07DA2900C9B21748DC
:104AA00064B2205CFFF721FF0EE003200400200029
:104AB000441E40B2002807D02900C9B20F4864B292
:104AC000205CFFF712FFF2E731BD10B5040064B2BD
:104AD000032C05DA094864B2205CFFF740FF0CE0C4
:104AE000032004002000441E40B2002805D00348E3
:104AF00064B2205CFFF733FFF4E710BD0411FF1F21
:104B000038B504000D0064B2002C03D0022C66D02E
:104B100049D380E0DFF8EC02006850F08070DFF8E5
:104B2000E41208606DB2002D0BD0022D15D00ED30B
:104B3000042D1ED017D3062D27D020D3072D2AD021
:104B40002FE04FF48061412000F0A0FF2AE04FF4F5
:104B50004071042000F09AFF24E04FF440710520DA
:104B600000F094FF1EE04FF44071062000F08EFF2D
:104B700018E04FF44071072000F088FF12E04FF476
:104B80008061652000F082FF0CE04FF480616620B8
:104B900000F07CFF06E04FF48061672000F076FFB4
:104BA00000E038E037E0DFF85C02006850F00070A9
:104BB000DFF8501208606DB2002D02D0012D06D032
:104BC0000BE04FF440710C2000F060FF06E04FF462
:104BD00040710D2000F05AFF00E01CE01BE0DFF800
:104BE0002802006850F08070DFF81C1208606DB277
:104BF000002D02D0012D06D00BE04FF440710A20A9
:104C000000F044FF06E04FF440710B2000F03EFF3F
:104C100000E000E0FFE731BDF8B504000D0016002C
:104C20001F0064B2002C0DD064B2012C02D064B21B
:104C3000022C02D16DB2022D04DB40F256217348E2
:104C400000F089FF290049B2200040B2FFF758FF69
:104C500076B2002E03D0022E4BD025D36DE06C48E7
:104C600064B250F824006DB210EBC500684964B21C
:104C700051F824106DB211EBC501C96851F044011F
:104C8000C160634864B250F824006DB210EBC500F7
:104C90005F4964B251F824106DB211EBC501C968C7
:104CA00031F03801C16048E0594864B250F824003E
:104CB0006DB210EBC500564964B251F824106DB2C4
:104CC00011EBC501C96851F04801C160504864B298
:104CD00050F824006DB210EBC5004D4964B251F894
:104CE00024106DB211EBC501C96831F03401C16007
:104CF00023E0474864B250F824006DB210EBC500C1
:104D0000434964B251F824106DB211EBC501C96872
:104D100051F04C01C1603E4864B250F824006DB2BD
:104D200010EBC5003A4964B251F824106DB211EB92
:104D3000C501C96831F03001C1607FB217F00700CA
:104D400050F00800324964B251F82410086030482D
:104D500064B250F82400406D50F004002C4964B255
:104D600051F8241048650020294964B251F82410F4
:104D70004866274864B250F82400406D400840005F
:104D8000234964B251F8241048650020204964B2D8
:104D900051F82410C86400201D4964B251F8241051
:104DA0000865F1BD38B504000D0064B2002C0DD0CB
:104DB00064B2012C02D064B2022C02D16DB2022D79
:104DC00004DB40F29121114800F0C5FE104864B2A6
:104DD00050F824006DB210EBC500006980B232BDFE
:104DE00010B5040064B2032C04DB4FF426710748AD
:104DF00000F0B1FE0020064964B251F8241048606A
:104E000010BD00003C800440308004405070000021
:104E10006810FF1F80B5012201218020FFF70EFDE1
:104E2000002201218120FFF709FD002201218220BB
:104E3000FFF704FD012201218420FFF7FFFC00227F
:104E400000218320FFF7FAFC002200218520FFF7D4
:104E5000F5FC0A20FFF7DFFD00F029F80520FFF739
:104E6000DAFD00F03BF80520FFF7D5FD202000F02B
:104E70008CF80C2000F089F8012000F0BBF8052028
:104E8000FFF7C9FD012000F0B5F8012000F0CCF8D3
:104E9000022000F0AFF8022000F0C6F801BD0021AA
:104EA000080080B2052801DA401CFAE7704780B597
:104EB00001218420FFF719FD0120FFF7ACFD00213F
:104EC0008420FFF712FD0220FFF7A5FD01218420B9
:104ED000FFF70BFD0120FFF79EFD01BD80B500210E
:104EE0008020FFF702FDFF2000F00EF8FF2000F009
:104EF0000BF8FF2000F008F8FF2000F005F8012172
:104F00008020FFF7F2FC01BD38B504000020050049
:104F1000EDB2082D19DA200604D501218120FFF712
:104F2000E4FC03E000218120FFF7DFFC0021822068
:104F3000FFF7DBFC6400FFF7B2FF01218220FFF7DF
:104F4000D4FCFFF7ACFF6D1CE2E731BD38B500259E
:104F500000200400E4B2082C14DA00218220FFF7BC
:104F6000C4FCFFF79CFF6D008320FFF715FD0128AF
:104F700000D16D1C01218220FFF7B7FCFFF78FFFE6
:104F8000641CE7E72800C0B232BD10B50400002160
:104F90008020FFF7AAFC2000C0B2FFF7B5FF012177
:104FA0008020FFF7A2FC10BD10B500218020FFF784
:104FB0009CFCFFF7CBFF04002402FFF7C7FF54FA65
:104FC00080F0040001218020FFF78FFC200080B2D8
:104FD00010BD10B5002004000548844206D285208B
:104FE000FFF7DAFC002801D0641CF5E710BD0000D3
:104FF00000093D0010B50400E4B2012C08D11020D6
:10500000FFF7C3FF4620FFF7C0FFFFF7E2FF0AE00C
:10501000E4B2022C07D11120FFF7B7FF4620FFF7BB
:10502000B4FFFFF7D6FF10BD70B5040000260020C6
:105030000500EDB2022D13DAFFF7CBFFE4B2012C2D
:1050400003D13820FFF7A1FF05E0E4B2022C02D122
:105050003920FFF79AFFFFF7A7FF06006D1CE8E76E
:10506000300080B270BD000010B504004FF4007035
:1050700094FBF0F101FB1041002903D014210B48EF
:1050800000F069FD0A48046010BD38B504000D0049
:10509000074800680749884203D02621034800F0EA
:1050A0005AFD044864B240F8245031BD70710000CC
:1050B00008ED00E00000FF1F012110F01F029140E9
:1050C000714A40B2430942F823107047012110F0A1
:1050D0001F0291406D4A40B2430942F823107047C5
:1050E00010B440B2002808D50A01694B40B210F054
:1050F0000F04E31803F8042C03E00A01654B40B2E7
:10510000C25410BC704780B500213320FFF7EDFB7F
:10511000042000F048FC01BD80B501213320FFF7D9
:10512000E4FB042000F069FC01BD80B501213320BF
:10513000FFF7DBFB042000F04BFC01BD80B5002134
:105140003320FFF7D2FB042000F074FC01BD80B5D2
:1051500000F0A6FD0020FFF7B8FC4F48006850F0B3
:1051600001004D49086001BD10B504004B480068BE
:105170004100002000F09CFD49495420FFF785FFC5
:1051800001214420FFF7ACFF4420FFF795FF45487D
:10519000FEF7BAFA10BD80B53F48006850F0010034
:1051A0003D49086040480068400840003E490860AA
:1051B00003203D4908604420FFF77EFF01BD80B514
:1051C0003548006850F001003349086036480068EF
:1051D00040084000344908600320334908604420F7
:1051E000FFF774FF01BD10B50400210049B204208F
:1051F00000F0CCFB10BD10B504002100042000F02D
:10520000A8FB10BD80B529480069007980060DD53E
:105210002748FFF7F0FF00F0B4FD2448006900794B
:1052200050F020002149096908710EE01F4800690B
:105230000079000609D500F09FFD1C48006900793F
:1052400050F0800019490969087101BD10B50400CA
:10525000200000F0F7F9002201213320FFF7EEFAD9
:1052600000213320FFF741FB12494520FFF70DFFD6
:10527000042000F098FB00213520FFF731FF0E4895
:10528000FEF742FA10BD000000E100E080E100E01E
:1052900018ED00E000E400E00C7103409019FF1FDE
:1052A0004F510000E474000008710340E410FF1F38
:1052B000F519FF1F05520000F474000080B50120AD
:1052C00000905FF4E13300222321002000F004F875
:1052D00000F057F801BD00002DE9F84304000D006F
:1052E00016001F009DF920805FF00009EDB2002D2F
:1052F00005D0EDB2002D02D0EDB2F82D02DB022078
:1053000081463AE06D48057064B2002C22D16C48A9
:105310006C4908606C486D4908606D486D490860CB
:105320006D486E49086000206D4908606D486E49FF
:1053300008606E486E4908606E486F4908604346D1
:105340005BB23A003100C9B25C48007800F024FD3D
:10535000814601E0022081464FFA89F9B9F1000F38
:105360000BD100F0D1FE002802D10320814604E0D9
:1053700062480470012062490870484640B2BDE8A6
:10538000F28310B500245E4890F90000012806D190
:105390004C480068804700205949087001E0062009
:1053A0000400200040B210BD38B50025544890F9E3
:1053B0000000002801D006207FE000A800F0B1FE28
:1053C000012879D19DF90000002805D002281CD0C1
:1053D00003D303286FD06FE06EE04B4A4B494C4833
:1053E0003E4B1B68984705006DB2002D0CD1484814
:1053F000007832490978884203D04548007800286F
:1054000002D1022000F085FE56E040480068007896
:105410004049087001204049087000200400802C99
:1054200018DA384810F83400002813D0354810F83E
:1054300034003849097888420AD133493348006832
:10544000304A12EBC402526890473349087001E0B9
:10545000641CE4E72E48007800282BD02E4890F9F1
:10546000000000281CD00020274908802948007827
:1054700050F0800025490968234A12885054224878
:105480000088401C20490880234800781F4909688B
:105490001D4A128850541C480088401C1A49088034
:1054A000194802881948016804480078094B1B68AC
:1054B0009847050000E0FFE7002032BDEF19FF1F0D
:1054C000F15D0000E013FF1F075E0000E413FF1F03
:1054D000695E0000DC13FF1F175E0000E813FF1F6A
:1054E000EC13FF1FEF5E0000F013FF1FB55F00001D
:1054F000F413FF1F59600000F813FF1FF019FF1F7E
:105500005C05FF1F6005FF1FE619FF1FFC13FF1F4F
:10551000F119FF1FF219FF1FF319FF1F10B5FF2329
:1055200013EAD0541DBF13EAD1529C429A4239E08B
:10553000A41ADA0780EA0103134042EA012142EA91
:105540000020421A3CBF641E01EB4202090AB2FB72
:10555000F1FE01FB1E221202B2FBF1F001FB102250
:105560006EF30F201202B2FBF1FE4EEA00207F34F0
:1055700006DDFE2C24DA53EA500050EBC45010BD77
:10558000D4F1020401FB1E2240F08071192C1DDCB5
:1055900021FA04F0C4F12004A140114371F100424A
:1055A000584110BD9C421ABF03EAD1529A420FE003
:1055B00080EA010E0EF00043400004D0490016D1ED
:1055C00043F0FF4010BD490008BFD343180010BD91
:1055D0009C4205D1D21AF7D001F00041484010BDDD
:1055E0004A0212BF0846484000F0004010BD4AB9C8
:1055F0000902B1FA81F2914044B1A418C00140F00F
:1056000000409EE7C90141F0004152420002B0FA59
:1056100080F4A040141B94E7012110F01F02914078
:10562000DFF8482440B2430942F8231070470121B3
:1056300010F01F029140DFF8382440B2430942F8CD
:10564000231070472DE9F0410400DFF828040068BA
:1056500050F48060DFF81C1408604FF440714E2055
:1056600000F014FA4FF440714F2000F00FFADFF809
:1056700008040069C07810F0F300DFF8FC13096932
:10568000C870DFF8F4030069807850F01300DFF889
:10569000E81309698870DFF8E40300684FF47A7151
:1056A000484380462001B8FBF0F00500ADB2B5F5E7
:1056B000005F02DB41F6FF700500B8FBF4F0ADB20D
:1056C000B0EB05100600B6B2202E04DB4421DFF853
:1056D000B00300F040FADFF8A0030069007810F092
:1056E000E0000700C5F304203843DFF88C13096994
:1056F0000870DFF8840300694570DFF87C030069F7
:10570000807A10F0E000070016F01F003843DFF841
:10571000681309698872DFF860030069007CDFF8AC
:10572000581309690874DFF850030069C07850F015
:105730000C00DFF844130969C870BDE8F0812DE959
:10574000F84304000D0064B2002C08D0022C2CD0C9
:1057500018D3042C4FD03BD3052C5FD071E0DFF879
:105760002403006850F48060DFF8181308604FF4D9
:105770004071662000F08AF94FF44071672000F014
:1057800085F95EE0DFF8FC02006850F40060DFF8A5
:10579000F41208604FF44071432000F077F94FF4A1
:1057A0004071442000F072F94BE0DFF8D802006845
:1057B00050F48050DFF8CC1208604FF44071632041
:1057C00000F064F94FF44071622000F05FF938E0B6
:1057D000DFF8B002006850F40050DFF8A81208604B
:1057E0004FF44071502000F051F94FF440715120B6
:1057F00000F04CF925E0DFF87C02006850F480608E
:10580000DFF8701208604FF440714E2000F03EF94E
:105810004FF440714F2000F039F912E0DFF85402E4
:10582000006850F40060DFF84C1208604FF44071DB
:10583000892000F02BF94FF44071882000F026F900
:10584000FFE7DFF8340264B250F82400C07810F0AB
:10585000F300DFF8241264B251F82410C870DFF8A6
:10586000180264B250F824008078DFF80C1264B299
:1058700051F82410887064B2002C02D064B2012C5C
:1058800007D1DFF8040200684FF47A71484381467B
:1058900005E07A4800684FF47A7148438146280150
:1058A000B9FBF0F00600B6B2B6F5005F02DB41F6D8
:1058B000FF700600B9FBF5F0B6B2B0EB06100700BA
:1058C000BFB2202F04DB40F22B116D4800F043F9EA
:1058D000694864B250F82400007810F0E000804677
:1058E000C6F3042050EA0800634964B251F824105A
:1058F0000870614864B250F8240046705E4864B293
:1059000050F82400807A10F0E000804617F01F0065
:1059100050EA0800584964B251F824108872564879
:1059200064B250F82400007C50F08800524964B200
:1059300051F824100874504864B250F82400C0781C
:1059400050F00C004C4964B251F82410C870BDE806
:10595000F183494A40B252F8202092F907200A7098
:1059600070470200444852B250F82200807D00285F
:1059700008D0414852B250F8220090F90700087050
:10598000012002E000200870002070473A4A40B22F
:1059900052F8202012791206F8D5374A40B252F850
:1059A0002020D171704710B50400334864B250F81C
:1059B0002400C07850F020002F4964B251F8241020
:1059C000C87064B260002D3040B2FFF725FE10BDF4
:1059D00010B50400284864B250F82400C07850F094
:1059E0008000254964B251F82410C87064B2600088
:1059F0002D3040B2FFF710FE10BD10B504001E4858
:105A000064B250F82400C07810F0DF001A4964B284
:105A100051F82410C870184864B250F82400C078B7
:105A2000C021084205D164B260002D3040B2FFF7BA
:105A3000FEFD10BD10B504000F4864B250F82400FC
:105A4000C07810F07F000C4964B251F82410C8707F
:105A5000094864B250F82400C078800605D464B2C6
:105A600060002D3040B2FFF7E2FD10BD00E100E024
:105A700080E100E028800440E410FF1F9019FF1F20
:105A800028710000348004408819FF1F10B4294A8F
:105A900012684FF40073C0B24409A3401A43254B67
:105AA0001A60254AC0B2431152F82320012310F096
:105AB0001F04A340C2F8A0301F4AC0B2431152F8DD
:105AC0002320C0B210F01F0342F8231010BC70470F
:105AD00010B4184A12684FF40073C0B24409A340CE
:105AE0001A43144B1A60144AC0B2431152F82320CF
:105AF000012310F01F04A340C2F8A03031F4E0618C
:105B00000D4AC0B2431152F82320C0B210F01F0357
:105B100052F8232012F4E0621143074AC0B2431145
:105B200052F82320C0B210F01F0342F8231010BC1B
:105B30007047000038800440D010FF1FBFF34F8F24
:105B40004648006810F4E06045490843434908604E
:105B5000BFF34F8FFEE738B504000D000020FEF7BD
:105B600079FF2A0021003F48FDF7CEFD0020FEF717
:105B7000ACFF4FF47A70FEF74EFFF2E738B5040041
:105B80000D00210049B20320FFF700FF200032BDC5
:105B900010B50024042000F0D9FA042000F00CFB1A
:105BA000002841D10020FEF755FF042000F004FB3F
:105BB000012801D1012004000020FEF786FF2A48B9
:105BC000FDF7A2FD4FF4FA70FEF725FFE4B2012CB9
:105BD000EBD1042000F0F0FA0028E6D1042000F018
:105BE000EBFA002806D10020FEF76FFF6420FEF7D5
:105BF00012FFF3E7042000F0DFFA012806D10020AD
:105C0000FEF763FF3220FEF706FFF3E71748FDF7C4
:105C10007BFDFDF759FA6420FEF7FDFE0020FDF73D
:105C200057FAFFF78BFFC0E710BD10B510480468A6
:105C30000020FEF70FFF0020FEF747FF0D48E4B2FB
:105C40000F2101FB0402E4B221000B48FDF75CFDCB
:105C50004FF47A70FEF7DFFEEDE700000CED00E098
:105C60000400FA05A8720000B0740000DC720000A5
:105C700004ED00E06009FF1FB471000010B50400DE
:105C8000A4B2322000FB04F0FFF76EFA012010BD31
:105C900080B5FFF780FA01BD80B5FFF790FA01BD2E
:105CA00080B502480068804701BD0000F813FF1F5F
:105CB00038B504000D00002D03D118211748FFF757
:105CC0004AFF1748006850F400001549086000209A
:105CD00014490860681E144964B2220150501248E9
:105CE00064B210EB0410C06850F001000E4964B2B9
:105CF00011EB0411C8600C4864B210EB041080680A
:105D000040084000084964B211EB04118860032088
:105D1000054964B211EB0411886031BDE0700000E8
:105D20003C800440007003400071034038B504001B
:105D30000D00E4B2012C02D1FFF7E5F901E0FFF715
:105D4000EBF9EDB2012D02D1FFF7EFF901E0FFF71A
:105D5000F5F931BDF8B504000D0016001F0028004C
:105D6000FFF774FA0120F2BD10B50400200040B224
:105D7000FFF739FA012010BD80B50548006880475B
:105D800001BD80B503480068804701BD00000000E8
:105D9000F413FF1FF013FF1F2DE9F84304000D005B
:105DA00016001F005FF000083B005BB208223100C4
:105DB0002800C0B2FFF7CEFF012802D003208046A2
:105DC00012E0B6F5964F02D92320814604E0BD4883
:105DD0007100B0FBF1F08146484680B2FFF74EFFFC
:105DE000012801D003208046404640B2BDE8F2833E
:105DF00080B50020B449087000210120FFF796FF0C
:105E0000FFF746FF01BD80B500210020FFF78EFFA0
:105E1000FFF742FF01BD2DE9F04104000D0016001F
:105E200000275FF00008A9480088FF2806DD9E22B1
:105E3000A749A84800F0D8F9C046C046A348008842
:105E400004280BDBA44800782070A0480088C01EFE
:105E50003080A24828600120070001E0052080462C
:105E6000404640B2BDE8F0812DE9F04104000D004C
:105E700016000027944890F90000012831D1681ECF
:105E80009749086001209749088095480068047088
:105E900094480088301893490880924801889048B7
:105EA000006800F0BBF980468E480088411C8D4A8E
:105EB0001180894980B200F801808A480088411C1D
:105EC000884A11801FFA88F85FEA1821824A80B256
:105ED000815401208449087001210020FFF726FF2A
:105EE00001E005200700380040B2BDE8F08110B5A0
:105EF00000247D4890F90000002806D0EC22744967
:105F00007A4800F071F9C046C0466F4890F9000029
:105F1000002805D0022833D008D3032803D046E058
:105F2000FFF7B6FE43E0FFF7B3FE40E070480078AD
:105F3000002810D100206549088064480088411C71
:105F4000624A11806B490978634A80B2815401200A
:105F50006749087009E05D480088411C5B4A118070
:105F6000644909785C4A80B2815463480078401CD7
:105F700061490870022054490870FFF789FE16E055
:105F800000205B49087051480088FF280ADC4F4810
:105F90000088411C4D4A1180564909784E4A80B20A
:105FA000815402E0032048490870FFF771FE200089
:105FB000C0B210BD10B50024434890F9000001287C
:105FC00007D04FF4977242494C4800F00DF9C04693
:105FD000C046454890F90000002802D0012805D0AD
:105FE00037E000210120FFF7A1FE32E03D480088A4
:105FF000002814D03A48006890F9000040B2FFF73A
:10600000B3FE37480068401C3549086035480088B1
:10601000401E3449088000203949087019E038488A
:10602000007800280AD10120354908702C48006802
:1060300090F9000040B2FFF797FE0AE0032000F05D
:1060400068F8040000210120FFF770FE00202649B7
:1060500008702000C0B210BD10B500241A4890F995
:106060000000002804D0022807D003280AD00AE044
:10607000002000F04EF804001CE0012000F049F878
:10608000040017E016E0104890F90000002811D035
:106090000D4890F9000002280CD00B4890F9000040
:1060A000032807D04FF4B9720949164800F09CF84C
:1060B000C046C046FFF7F0FD0120034908702000EC
:1060C000C0B210BDA07F1700F719FF1FEC19FF1F0A
:1060D0006C6F0000587200002014FF1F2114FF1F76
:1060E0002015FF1FEA19FF1FF619FF1F3473000068
:1060F000F819FF1FF519FF1FF419FF1F5073000057
:10610000F919FF1F086F000000200E4908700120D8
:106110007047010001200B4A10700B4801700120EC
:10612000704701000020074A1278002A07D0064A6B
:1061300012780A700022034B1A7001221000C0B2BC
:1061400070470000FB19FF1FFA19FF1F10B504006C
:1061500064B2082C0DDA00220021224864B2205CCF
:10616000FEF76CFB03211F4864B2205CFFF7B0FC14
:1061700014E0082004002000441E40B200280DD086
:1061800000220021174864B2205CFEF757FB032170
:10619000144864B2205CFFF79BFCECE710BD10B51F
:1061A0000400104864B2205CFEF7F6FB002801D121
:1061B000002000E0012010BD10B50400200040B216
:1061C000FFF7EDFF00280AD10A20FEF724FC20008B
:1061D00040B2FFF7E4FF002801D1002000E00120D9
:1061E00010BD0000FC10FF1F80B503460FF20C002D
:1061F000FDF78AFABDE8014000F032B825733A2570
:1062000064202573202D2D20617373657274696F6E
:106210006E206661696C65640A00000030B402009B
:10622000FF20FF230D00691EADB2002D0CD0DBB2A4
