:10000000F8FF002011040000CF280000CF280000D6
:10001000CF280000CF280000CF280000CF28000004
:10002000CF280000CF280000CF280000CF280000F4
:10003000CF280000CF280000CF280000CF280000E4
:10004000CF280000CF280000CF280000CF280000D4
:10040000FFFFFFFFFFFFFFFFFFFFFFFFFEFFFFFFFD
:1004100062B603F025F9FEE72DE9F04FA1B0804662
:10042000002017461D4602910B900DF1440A6FF013
:1004300000490AE017F8011B0298C0470028029003
:1004400000F0A5820B98401C0B90387808B90B98E7
:100450009FE22528EED10020059006900790089095
:1004600009900A9001E040F0010017F8011F2029CF
:10047000F9D023290DD02B2904D02D2906D03029DD
:100480000AD00CE040F0020080B2EEE740F0040039
:10049000FAE740F00800F7E740F01000F4E72A29F7
:1004A0000ED12968296051F8042B2960002A0D9289
:1004B00004D5514240F004000D9180B27F1C11E040
:1004C00000210D9109E00D99494505D001EB81030B
:1004D00002EB430130390D917F1C3A78A2F13001D3
:1004E0000A29F0D339782E2903D04FF0FF310C912F
:1004F0001DE017F8011F2A2907D1296829607F1CF0
:1005000051F8042B29600C9211E000210C9109E0B4
:100510000C99494505D001EB810302EB43013039C9
:100520000C917F1C3A78A2F130010A29F0D3ADF882
:1005300038000FF6C020397800F07AFD08B117F8BE
:10054000010B8DF83A009DF83A00682802BF39780F
:100550006829622005D06C2804BF38786C2803D144
:1005600071208DF83A007F1C11A8049017F8014BF8
:10057000B4F1250023D02038022840F2BB80133884
:1005800000F0E0800B3800F04A81401E00F023812B
:10059000401E022840F2AE80001F00F01C81401F68
:1005A00079D0401E00F0CE80401E24D0C01E0BD05B
:1005B000801E00F0C780C01E00F0C48039E12520F5
:1005C0008DF8440001203DE12868286050F8046B54
:1005D000286003960C9C002C04D5304600F034FDB6
:1005E000044606E022460021304600F049FD00B1F5
:1005F000841B069427E1296829603C2451F8040BE8
:1006000029600021CDE9000111A80390DDE9000176
:10061000049E11B908B90C9AB2B10206120FA0EBF0
:1006200002123032D2B2631E3A2AA8BF2732000922
:1006300040EA017009099A5508BF00281C4603D0FA
:10064000039AA3199A42E8D3A0190390C4F13C017C
:100650000C980691814209DA401A08904FF6EF7122
:10066000BDF838000840ADF83800ECE0002840F153
:10067000EA809DF8380000F01400102840F0E38074
:100680000D98059A801A089A801A441A012CC0F213
:10069000DA800894D7E09DF83A0062281AD06828DA
:1006A00006D06A280CD06C281CD0712808D019E01C
:1006B0002868286050F8041B28600B980880C2E066
:1006C0002868286050F8042B28600B98C117C2E9ED
:1006D0000001B8E02868286050F8041B28600B98D7
:1006E0000870B0E02868286050F8041B28600B9858
:1006F0000860A8E02868C01D20F007022A60D2E93F
:10070000000108322A60CDE90001002902D50598D0
:100710002D210AE0BDF83800810702D505982B216C
:1007200003E0C00705D50598202100F80A10401CF9
:10073000059011A8059908180390214600A800F01B
:10074000E5F980E09DF83A006C280DD0712818BFBB
:100750006A2809D12868C01D20F007022A60D2E962
:10076000000108322A6005E02968296051F8040B6D
:1007700029600021CDE900019DF83A00682803D1E5
:10078000DDE9000180B20BE0622803D1DDE9000160
:10079000C0B205E0742818BF7A2804D1DDE9000151
:1007A0000021CDE900019DF8380000072ED5DDE9D4
:1007B0000001002908BF002828D044F02000782834
:1007C00024D10598302100F80A10401C411C0591E5
:1007D00000F80A401AE09DF83A00294600F0DCF8DB
:1007E000CDE90001002902DA05982D210AE0BDF8C3
:1007F0003800810702D505982B2103E0C00705D5F5
:100800000598202100F80A10401C059011A80599B0
:1008100008180390214600A800F0F5F813E0012025
:1008200005902868286050F8041B28608DF8441053
:1008300009E025208DF84400012005901CB18AF8BC
:100840000140022005900D980599401A0899401A18
:100850000699401A0999401A0799401A0A99441AA8
:100860009DF83800400710D420208DF84000002665
:1008700009E0012310AA00A9404600F0A3FB0028CC
:1008800040F08580761CA642F3DB059E0DF1440BFB
:100890000AE01BF8011B0298C0470028029076D09E
:1008A0000B98401C0B90761E002EF2D130208DF854
:1008B00040004FF0000B089E09E0012310AA00A998
:1008C000404600F07FFB002861D10BF1010BB345DE
:1008D000F3DB069EDDF80CB00AE01BF8011B029862
:1008E000C0470028029052D00B98401C0B90761EF7
:1008F000002EF2D130208DF840004FF0000B099E01
:1009000009E0012310AA00A9404600F05BFB002883
:100910003DD10BF1010BB345F3DB03980699079E1C
:1009200001EB000B09E01BF8011B0298C047029085
:1009300068B30B98401C0B90761E002EF3D130202C
:100940008DF840004FF0000B0A9E08E0012310AA2A
:1009500000A9404600F036FBC8B90BF1010BB345C6
:10096000F4DB9DF8380040077FF56FAD20208DF84F
:100970004000002600E0761CA642BFF666AD0123CB
:1009800010AA00A9404600F01DFB0028F3D04FF04C
:10099000FF3021B0BDE8F08F622826D068281DD036
:1009A0006A2808D06C2827D0712804D0742823D056
:1009B0007A280CD020E00868C01D20F007000860ED
:1009C000D0E90023083008601946104670470A68CD
:1009D0000A6052F8040B0A60002170470A680A6036
:1009E00052F8040B0A6000B20BE00A680A6052F881
:1009F000040B0A6040B204E00A680A6052F8040B73
:100A00000A60C11770472DE9FA4E05460A462F695C
:100A10006F2A08BF082405D041F02000782814BFB1
:100A20000A2410243C26D5E90001642A18BF692A4B
:100A300081468A4605D1002903DAD9F100096AEB1B
:100A40004A0ABAF1000F08BFB9F1000F0CD1286BA8
:100A500050B9082C36D195F83800000732D530202F
:100A60003B2687F83B002DE0E317484651462246D7
:100A700000F032FBA4FB0023A9EB02023032D2B219
:100A8000A6F1010B3A2A5E4603DB9DF80030513B8C
:100A90009A1881465FEA010A0BF8072008BFB9F1EE
:100AA000000F03D0E868F1198842DDD3082C09D182
:100AB00095F83800000705D5F05D302802D0761E85
:100AC0003020F055C6F13C00A861F119E960296BAE
:100AD000884208DA081A28624FF6EF71288F08401A
:100AE0002887BDE8F38E00290ED595F8381001F05F
:100AF0001401102908D1696B6A69891A2A6A891A4E
:100B00000E1A012EA8BF2E62BDE8F38E2DE9F34F19
:100B10008BB0D0E90089006B002801AF48BF0620E8
:100B200005D404BF41F02000672802D101200B99B1
:100B3000086340F2FF720B984168C1F30A5090427B
:100B400020D1080302BF0B98006800280AD10B9936
:100B5000032088619DF8300061381A2858D30FF2BD
:100B6000A84109E00B99032088619DF830006138A5
:100B70001A284AD30FF288410B98C068032200F06C
:100B800023FB00E1012807DA0B9800F058FB01284D
:100B900002DB00230026EDE00B9ADFF854B1526827
:100BA00040F2FE3161F31E520B994A6040F2FE3171
:100BB000461A404649460022002300F061FB38BF38
:100BC00089F0004936B247F297507043494990FB8B
:100BD000F1F636B2C6F10707012F92461BDBF80784
:100BE00007D552465B464046494600F061FB8046C9
:100BF00089465046594652465B467F1000F058FBE6
:100C0000002F82468B46EAD126E00FF2F031B3E79F
:100C10000FF2F031B0E77F420024374D12E0F807C1
:100C200007D552465B462046294600F041FB044664
:100C30000D465046594652465B4600F039FB7F1040
:100C400082468B46002FEAD14046494622462B4633
:100C500000F000FC804689469DF830000B99DFF8D3
:100C60009CB0096B40F02005662D0CBF06F10A0010
:100C700006204718142FA8BF132730208DF8040032
:100C80000DF10504012F3BDB4046494600F00EFD07
:100C9000014604F1080204234FF00A0CB1FBFCFCEE
:100CA0000CEB8C04A1EB4401303102F8011C0A2149
:100CB000BCFBF1FE0EEB8E04ACEB440430345B1E47
:100CC000714602F8024DE7D1083F012F02F10804F6
:100CD000D8DB00F001FD02460B464046494600F0D5
:100CE00009FD00225B4600F0E3FA80468946CBE727
:100CF00000002440A08601000000F03F84D7974107
:100D00000DF10500201A0DF1050702E0401E761EC8
:100D10007F1C39783029F9D0662D02D136B2711C8A
:100D200003E0652D0CBF012100210B9A126B8B187B
:100D30001BB29842B8BF03461BB219001AD48142B5
:100D400004DAC85D3528A8BF392000DA3020CA1976
:100D5000521E00E05B1E12F80159491E8542F9D06F
:100D6000392802D1C85D401CC855002902D57F1E14
:100D70005B1C761C36B29DF830100B9800961BB2A7
:100D80003A4600F003F80DB0BDE8F08F2DE9F047CA
:100D900086B006468A4690461D4600F088FD012D25
:100DA000406A376B90F8009002DA01250FF25C2858
:100DB0004AF02000BDF93840662808BF641C13D0F3
:100DC000672840F0888014F1040F73DBBC4271DAAD
:100DD00096F83800641C000702D4BD42B8BF2F4605
:100DE00024B23F1B48BF002724B2F068B169012C30
:100DF00021DA4A1C30230B54012F03DA96F83810FD
:100E0000090702D502F80090521CE742B8BF7C42A5
:100E100024B2E7196142AF42B2617162B8BF3D4688
:100E2000B3692DB2F5612A464146181800F0CCF995
:100E3000781BB062AFE00818A54216DA2A46414690
:100E400000F0C2F9B1696918601B012FB1617062CD
:100E500003DA96F83800000705D5F06801F800902D
:100E6000F069401CF061B76295E02246414600F00F
:100E7000ABF9B06920182D1B012F03DA96F8381052
:100E8000090703D5F16800F80190401CB0612DB24C
:100E9000AF42B8BF3D46F068B3692DB22A4604EBB5
:100EA0000801181800F090F9B0692818B061781B93
:100EB000706270E0BD4204DA96F83810090758BF36
:100EC0002F467F1E48BF0027BAF1670F0CBF4FF0B7
:100ED000650A4FF0450AB169F06818F8013B0B54F8
:100EE0004A1C012F05DA96F83810090758BFB2617D
:100EF00015D502F80090531C012FB3610FDB6D1E56
:100F00002DB2AF42B8BF3D462DB22A464146181811
:100F100000F05AF9B0692818B061781B7062F06867
:100F2000B1690918200081F800A004D42B20487072
:100F300001F1020804E02D224A7001F10208644226
:100F4000002502AF08E00A2200A800F0C9FC0198C1
:100F500007F8010B6D1C009C21B20129F3DA022D68
:100F600006DA4AF02000652804BF302008F8010B9B
:100F70004DB9302008F8010B07E06D1E02A8285C6F
:100F8000303008F8010B012DF7DAF068B169081864
:100F9000A8EB0000F06196F8380000F0140010286B
:100FA0000DD17069B1690818716A0818F1690818DB
:100FB000B16A0818716B8842BCBF081A306206B06B
:100FC000BDE8F087F8B504460D4616461F460020DA
:100FD00004E0E86A401CE8627F1E002047B116F872
:100FE000011BA868A0470028A860F2D14FF0FF308D
:100FF000F2BD0000686A6C747A4C00006E616E008D
:101000004E414E00696E6600494E4600300050F871
:10101000041B61B150F8042BD30744BFA9F10103AD
:101020009A180023091F42F8043BFAD1EFE77047F2
:101030000278C9B28A421AB11CBF10F8012FF9E731
:1010400018BF00207047000000F10103810704D0A1
:1010500010F8011B89B18107FAD10268B2F10131A0
:10106000914311F0803F04BF50F8042FF6E710F8C9
:10107000011B11B110F8011BFBE7C01A70470000FB
:10108000C9B2830706D0521E22D310F8013B994201
:10109000F7D11FE0083A13D302F1040241EA01211B
:1010A00041EA014150F8043B121F21BF4B40A3F11C
:1010B000013C2CEA030C1CF0803FF3D0C9B2001FA6
:1010C000083210F8013B521E28BF91EA030FF8D8EE
:1010D00018BF0120401E70471B4213D1094236D170
:1010E0002AB18446B0FBF2F002FB10C2704700F058
:1010F000FFBBFCD30022002370470B00020000213D
:1011000000207047904271EB030CF6D370B5B1FA32
:1011100081F4B3FA83F52C1BA340C4F1200532FA05
:1011200005F63343A2405FF00046E64002E05B086C
:101130005FEA3202841A71EB030524BF2046294678
:101140007641F4D302000B003000002170BD012A6B
:10115000CFD970B5140C20D0B1FA81F4B2FA82F56F
:10116000C4F120046419B4F12006D6D3B2405FF074
:101170000044F440002502E052085FEA3303C61A37
:1011800071EB020E24BF3046714664416D41F3D3CA
:1011900002000B002000290070BD0C46B1FBF2F1EB
:1011A00002FB11452D0445EA1045B5FBF2F402FBA4
:1011B000145580B240EA0545B5FBF2F002FB10522F
:1011C00040EA044070BD000062B38B0708D0521E95
:1011D00011F8013B00F8013B00F024808B07F6D1A9
:1011E000830740F0208000BF103A07D330B4B1E845
:1011F0003810103AA0E83810F9D230BC530724BF99
:10120000B1E80810A0E8081044BF51F8043B40F8CA
:10121000043BD20724BF31F8022B20F8022B44BF35
:101220000B7803707047083A07D3B1E80810083A02
:1012300040F8043B40F804CBF7D25307E4E730B45E
:10124000436803F0004201211B031B0B436004BFF2
:101250000368002B08D10DE00368DD0F45EA440464
:1012600044605B000360491E4468E302F4D5230335
:101270001B0B436043681A434260084630BC70470A
:101280004FF4001C1CEB410F94BF1CEB430F09E013
:1012900041EA030C50EA4C0C52EA0C0C03D299427E
:1012A00008BF9042704714BF8B42824270470000D3
:1012B000B0B581EA030C0CF0004C40F2FF7515EA62
:1012C00011541DBF15EA1357AC42AF4239E0E4197F
:1012D00023EA455343F48013C90241F0004141EA37
:1012E000505EC7021100A7FB020200284FF0000069
:1012F000EEFB01204FF00001E3FB072118BF42F095
:101300000102401800214941E3FB0E01A4F580646D
:101310000F0302D252004041494154F101046CDDF7
:10132000470872F1004250F1000051EB0451A1F561
:1013300080115CBF41EA0C01B0BD4CEA05510020B0
:10134000B0BD05EA1357AC4214BFAF4241E050EACA
:10135000410E1CBF52EA430E02E061460020B0BDC0
:1013600024423C441BD15FEA070EF6D0090302BFBA
:1013700001460020AEF1140EB1FA81F7AEEB07047E
:1013800001FA07FE0C37C7F1200100FA07F7C84041
:101390004EEA000E23EA455343F48013A2E733F0EC
:1013A0000043B3FA83F704BFB2FA82FE77440B3FDF
:1013B000E41BB7F1200E2FBF02FA0EF3BB40C7F1BA
:1013C000200E22FA0EFE38BF43EA0E03BA40641C18
:1013D00082E750EA410E14BF52EA430E6FF000015B
:1013E0004FF4001717EB430F8ABF194617EB410F55
:1013F000B5E74CEA05510020B0BDD4F10104B4F1C9
:1014000020070FDAC4F12007520828BF42F001027A
:1014100010FA07F501FA07F7E1BF2A43E040384325
:10142000E1400FE0352C98DCC7F1200452EA40027D
:1014300020FA07F218BF42F0010231FA07F0A1408A
:101440000A43002172F1004250F1000051EB0C01FF
:10145000B0BD00002DE9F04140F2FF7581EA030CB8
:101460000CF0004C15EA11541DBF15EA1357AC429D
:10147000AF42E9E0BC41C1F31301C3F31303801A87
:10148000994143F4801304D2641E400049418018FE
:101490005941C90241EA5051B1FBF3F603FB161161
:1014A000A2FB0675D7EBC020A94102D2761E801898
:1014B0005941C90241EA5051B1FBF3FE03FB1E1131
:1014C000A2FB0E75D7EBC020A94103D2AEF1010EED
:1014D00080185941890241EA9051760546EA8E2EDC
:1014E000B1FBF3F603FB1611A2FB0675D7EB8020C8
:1014F000A94102D2761E80185941C90241EA5051D1
:101500004EEA060EB1FBF3F603FB1611A2FB0675BD
:10151000D7EBC020A94102D2761E80185941C902DA
:1015200041EA5051B1FBF3F703FB1711A2FB07355A
:10153000D3EBC020A94167F100070CBF004247F080
:10154000010766F3D5274FEA1E31B80814F5806409
:1015500014DDBD0775F1004250EB0E5051EB045104
:1015600011F5801F5CBF41EA0C01BDE8F0814CF031
:101570007F6141F0E0410020BDE8F081BD076D08CA
:1015800040EA0E5041F48011D4F10104B4F1200678
:101590000ADAC4F120060200E04001FA06F3E14055
:1015A0001843B24015430EE0342C14DCC6F120047D
:1015B00045EA40056D0820FA06F2154321FA06F0C7
:1015C000A1400D43002175F1004250F1000051EBA4
:1015D0000C01BDE8F08100205FEA0C01BDE8F0815C
:1015E000CFB992185B41B3FA83F704BFB2FA82F61F
:1015F000BF190B3FB7F120062FBF02FA06F3BB401D
:10160000C7F1200622FA06F638BF3343BA401CB1B0
:10161000E419641E2FE77F4231F00041B1FA81F4F2
:1016200004BFB0FA80F6A4190B3CB4F120062FBF1A
:1016300000FA06F1A140C4F1200620FA06F638BFF0
:101640003143A0403C1B16E7AC421ABF05EA1357D2
:10165000AF4214E050EA41061CBF52EA4306BFE71E
:1016600050EA4107304661461CBF41EA0551BDE8DA
:10167000F08152EA430C08BFC143BDE8F08100206D
:101680004FF4001616EB410F98BF16EB430F08BF3F
:1016900016EB410F24BFC14305E016EB430F0CBF0F
:1016A00061464CEA0551BDE8F0810000400D40EA7A
:1016B000C120490080F00D8040F00040490DA1F5A7
:1016C0008061491C05D4D1F11F0154BFC840C01727
:1016D00070474FF000007047010000BF09D0B0FA1A
:1016E00080F18840C91CC1F58461090501EBD02156
:1016F00040057047F0B44FF0004591EA030F44BF36
:101700006B4000F0F7B800BF841A71EB030604D2F7
:101710006E40001BB141121973414FF4001C1CEBC9
:10172000410F34BF7CEB430684E00C0DA4EB135651
:10173000362E7DDC012E43DC45EAC32343EA5253B7
:1017400012BFD20292025B08240545EAC12141EA98
:101750005051D2EBC020994125D407D1B0FA80F680
:1017600010FA06F164D00020203608E0B1FA81F6C4
:10177000B140C6F1200220FA02F21143B0404FEA14
:10178000F474B4EB465434F001064FEA74040AD8FA
:10179000D6F50016760D04F00044F04061FA06F22A
:1017A0005040F1404840C00A40EA415021F0004119
:1017B00028BF5FEA500550F1000044EBD12137E02B
:1017C00045EAC323DB0A45EAC121C90AB6F120056F
:1017D0000EDD42EA0242120CC5F1200603FA06F6BB
:1017E000EB4042EA06056D42984161F100010DE0CF
:1017F00062FA06F5F240554063FA06FC82EA0C02F2
:10180000F3405A406D42904161EB030111F4801F97
:1018100005D1641E620502D06D004041494121F4AA
:101820008011430875F1004350F1000041EB045171
:10183000F0BC70471CEB410F15D223F0004352EA75
:1018400043060BD04FEA4C0CBCEB410F04D80C0DF7
:10185000661E342EB7DDEBE7801A994150EA410647
:1018600008BF0021E4E708BF1CEB430F28BF6FF05F
:101870000001DDE780B5134800F0A6F80FF24C0236
:101880000FF244010160426241600FF24402826340
:1018900081600FF24402C160016141618161816236
:1018A000C16201634163C2630164416401BD10B55B
:1018B000044800F089F80446206808B9FFF7DAFF09
:1018C000204610BD640EFF1F000000002E00000027
:1018D00066616C736500000074727565000000003D
:1018E00091FBF2F303FB1211C0E9003170470000D5
:1018F00070470000841A71EB030603D2001BB1414C
:10190000121973414FF4001C1CEB410F34BF7CEBE8
:10191000430443E00C0DA4EB1356352E50DC45EA8E
:10192000C323DB0A45EAC121C912B6F120050DDD4A
:1019300063FA05F6EB4086EA0305124218BF45F04C
:101940000105C01851F100010CD213E062FA06F54E
:10195000F2405540F3415A40B340F3405A4080189A
:10196000594107D349085FEA30005FEA350528BFCF
:1019700045F0010501F58011420875F1004250F172
:10198000000041EB0451F0BC4FF4001C1CEB410F74
:1019900038BF70470020090D090570471CEB410F47
:1019A00010D252EA43060BD0BCEB410F05D80C0D08
:1019B000AB43661E342EB5DD02E0AB4380185941BF
:1019C000F0BC7047F0BC704770470000000000009A
:1019D0000000000000000000000000000000000007
:1019E000000000000000000000004E6F6E4D6173AB
:1019F0006B61626C6500000000486172644661754D
:101A00006C740000000000004D656D4D616E6167F3
:101A1000656D656E7400004275734661756C740087
:101A200000000000000055736167654661756C74C5
:101A300000000000000000000000000000000000A6
:101A40000000000000000000000000000000000096
:101A50000000000000000000000000000000000086
:101A60000000000000000000000000000000000076
:101A700000535643616C6C00000000000000000041
:101A800044656275674D6F6E69746F720000000087
:101A90000000000000000000000000000000506591
:101AA0006E6453560000000000000000005379737C
:101AB0005469636B0000000000000000444D413099
:101AC0000000000000000000000000444D41310013
:101AD00000000000000000000000444D4132000002
:101AE000000000000000000000444D4133000000F1
:101AF0000000000000000000444D413400000000E0
:101B000000000000000000444D41350000000000CE
:101B1000000000000000444D4136000000000000BD
:101B20000000000000444D413700000000000000AC
:101B300000000000444D413800000000000000009B
:101B4000000000444D41390000000000000000008A
:101B50000000444D41313000000000000000000052
:101B600000444D4131310000000000000000000041
:101B7000444D4131320000000000000000000044EC
:101B80004D41313300000000000000000000444DD2
:101B900041313400000000000000000000444D41CD
:101BA000313500000000000000000000444D415F9E
:101BB0004572726F720000000000004D434D00003E
:101BC000000000000000000000004654464C0000E9
:101BD000000000000000000000526561645F436F78
:101BE0006C6C6973696F6E004C56445F4C565700BD
:101BF000000000000000004C4C57000000000000F6
:101C00000000000000005761746368646F670000A3
:101C10000000000000524E470000000000000000DD
:101C200000000000493243300000000000000000C6
:101C300000000049324331000000000000000000B5
:101C40000000535049300000000000000000000078
:101C50000053504931000000000000000000000067
:101C60005350493200000000000000000000004313
:101C7000414E305F4F525F4D425F62756600434197
:101C80004E305F4275735F4F666600000043414E01
:101C9000305F4572726F72000000000043414E30A9
:101CA0005F54785F5761726E696E6743414E305F73
:101CB00052785F5761726E696E6743414E305F576D
:101CC000616B655F557000000052657365727665E3
:101CD00064353100000000005265736572766564FA
:101CE0003532000000000043414E315F4F525F4DDE
:101CF000425F6275660043414E315F4275735F4FCC
:101D0000666600000043414E315F4572726F72009B
:101D10000000000043414E315F54785F5761726E9E
:101D2000696E6743414E315F52785F5761726E69E9
:101D30006E6743414E315F57616B655F55700000C0
:101D400000526573657276656435390000000000E5
:101D50005265736572766564363000000000005588
:101D6000415254305F52585F5458000000005541B2
:101D70005254305F4552520000000000005541525D
:101D800054315F52585F545800000000554152547E
:101D9000315F45525200000000000055415254325C
:101DA0005F52585F54580000000055415254325F52
:101DB00045525200000000000055415254335F521A
:101DC000585F54580000000055415254335F45524B
:101DD0005200000000000055415254345F52585FD9
:101DE00054580000000055415254345F455252008F
:101DF000000000000055415254355F52585F54585E
:101E00000000000055415254355F45525200000019
:101E100000000041444330000000000000000000CA
:101E200000004144433100000000000000000000B9
:101E300000434D5030000000000000000000000092
:101E4000434D50310000000000000000000000433E
:101E50004D50320000000000000000000000465419
:101E60004D30000000000000000000000046544D0E
:101E700031000000000000000000000046544D3218
:101E80000000000000000000000000434D5400006E
:101E90000000000000000000000052544300000059
:101EA0000000000000000000005265736572766556
:101EB0006438330000000000504954300000000036
:101EC00000000000000000504954310000000000F4
:101ED00000000000000050495432000000000000E3
:101EE00000000000005049543300000000000000D2
:101EF00000000000504442300000000000000000DC
:101F000000000055534230000000000000000000B7
:101F1000000055534244434400000000000000000C
:101F200000454E45545F313538385F54696D6572F0
:101F3000454E45545F5472616E736D69740000457F
:101F40004E45545F52656365697665000000454EF5
:101F500045545F4572726F720000000000493253B1
:101F6000300000000000000000000000534448431F
:101F70000000000000000000000000444143300069
:101F80000000000000000000000044414331000058
:101F90000000000000000000005453493000000021
:101FA00000000000000000004D434700000000005A
:101FB000000000000000004C5054696D6572000084
:101FC0000000000000005265736572766564313070
:101FD0003200000000504F52544100000000000049
:101FE00000000000504F525442000000000000006A
:101FF000000000504F525443000000000000000059
:102000000000504F52544400000000000000000047
:1020100000504F5254450000000000000000000036
:102020005265736572766564313038000000005285
:102030006573657276656431303900000000526561
:10204000736572766564313130000000005265734B
:102050006572766564313131000000005265736548
:10206000727665643131320000000052657365722A
:102070007665643131330000000052657365727615
:102080006564313134000000005265736572766515
:102090006431313500000000526573657276656405
:1020A0003131360000000052657365727665643127
:1020B0003137000000005265736572766564313116
:1020C00038000000005265736572766564313139FD
:1020D00000000000008003400090034000800B409F
:1020E00000900B4000F00F4040F00F4080F00F4098
:1020F000C0F00F4000F10F4066000A1D32000701DA
:10210000640007106E000406780004088200040AC8
:102110008C00040C9600040EA0000410AA00041207
:10212000B4000414BE000416C8000418D200041A37
:10213000DC00041CE100041DE600041EEB00041F8B
:10214000F4000317FA000318130101062C0102140E
:10215000000109080090044000A0044000B00440C1
:1021600000C0044000D0044000A0064000B006407B
:1021700000C0064000D0064000A00E4000B00E4057
:102180006A6E6B6C676D4E4F343536370204010151
:10219000100EFF1F600EFF1F100EFF1F100EFF1FFF
:1021A000100EFF1F0D0CFF1FF40BFF1F000000009F
:1021B000000000000000000000000000000000001F
:1021C00000000000000000000000000038B504001E
:1021D0000D0064B2002C06D0022C69D04CD3032C25
:1021E00000F08280C7E0DFF82405006850F08070BE
:1021F000DFF8181508606DB2002D0BD0022D15D038
:102200000ED3042D1ED017D3062D27D020D3072D93
:102210002AD02FE04FF48061412000F081FA2AE0BB
:102220004FF44071042000F07BFA24E04FF4407139
:10223000052000F075FA1EE04FF44071062000F012
:102240006FFA18E04FF44071072000F069FA12E0CD
:102250004FF48061652000F063FA0CE04FF4806178
:10226000662000F05DFA06E04FF48061672000F020
:1022700057FA00E07FE07EE0DFF89004006850F05D
:102280000070DFF8881408606DB2002D02D0012DB7
:1022900006D00BE04FF440710C2000F041FA06E04C
:1022A0004FF440710D2000F03BFA00E063E062E083
:1022B000DFF85C04006850F08070DFF854140860A8
:1022C0006DB2002D02D0012D06D00BE04FF440710D
:1022D0000A2000F025FA06E04FF440710B2000F0D0
:1022E0001FFA00E047E046E0DFF82404006850F001
:1022F0000070DFF81C1408606DB2002D0BD0022DA9
:1023000015D00ED3042D1ED017D3062D27D020D3E1
:10231000072D2AD02EE04FF4C061852000F000FA8E
:1023200028E04FF4C061862000F0FAF922E04FF473
:10233000C061872000F0F4F91CE04FF4C0618820F0
:1023400000F0EEF916E04FF4C061892000F0E8F9E2
:1023500010E04FF4C0618A2000F0E2F90AE04FF487
:10236000C0618B2000F0DCF904E04FF4C0618C20E8
:1023700000F0D6F9FFE731BD2DE9F84F04000D005C
:1023800016001F0064B2002C11D064B2012C02D0E0
:1023900064B2022C02D16DB2022D08DB64B2032CB0
:1023A00005D04FF4C271DFF86C0300F026FA290063
:1023B00049B2200040B2FFF709FFDFF85C03006874
:1023C0004FF47A71484380465FEA1840B0FBF6F05C
:1023D0008146002082461FFA89F9484650FA0AF0E1
:1023E000012802DB1AF1010AF5E75FFA8AFABAF16D
:1023F000080F05DB40F29F11DFF8180300F0FDF92C
:10240000404630FA0AF0B0FBF6F0814664B2002C88
:1024100005D0022C19D00DD3032C21D02BE01FFAAC
:1024200089F919F1010000FB07F06421B0FBF1F01C
:10243000834620E01FFA89F919F1010000FB07F03B
:102440006421B0FBF1F0834615E01FFA89F919F118
:10245000010000FB07F06421B0FBF1F083460AE0C5
:102460001FFA89F919F1010000FB07F06421B0FBA4
:10247000F1F08346FFE7DFF8A40264B250F82400CD
:102480006DB210EBC500DFF8941264B251F824105D
:102490006DB211EBC501C96831F00401C160DFF80C
:1024A0007C0264B250F824006DB210EBC500282104
:1024B000C1605FFA8AFA1AF0070050F00800DFF8EE
:1024C0005C1264B251F8241008601FFA89F9DFF831
:1024D0004C0264B250F82400C0F808900020DFF8E5
:1024E0003C1264B251F82410C864DFF8300264B2C0
:1024F00050F824006DB210EBC5001FFA8BFBC0F83A
:1025000010B00020DFF8141264B251F824104860B3
:10251000BDE8F18FF8B504000D0016001F0064B28D
:10252000002C10D064B2012C02D064B2022C02D173
:102530006DB2022D07DB64B2032C04D04FF4187186
:10254000744800F05AF9290049B2200040B2FFF760
:102550003DFE76B2002E03D0022E4BD025D36DE087
:102560006E4864B250F824006DB210EBC5006B49A0
:1025700064B251F824106DB211EBC501C96851F075
:102580004401C160654864B250F824006DB210EB9C
:10259000C500624964B251F824106DB211EBC50157
:1025A000C96831F03801C16048E05C4864B250F855
:1025B00024006DB210EBC500584964B251F82410E4
:1025C0006DB211EBC501C96851F04801C1605348B3
:1025D00064B250F824006DB210EBC5004F4964B2EC
:1025E00051F824106DB211EBC501C96831F0340106
:1025F000C16023E0494864B250F824006DB210EB8A
:10260000C500464964B251F824106DB211EBC50102
:10261000C96851F04C01C160404864B250F82400D0
:102620006DB210EBC5003D4964B251F824106DB293
:1026300011EBC501C96831F03001C1607FB217F0FC
:10264000070050F00800354964B251F824100860C2
:10265000324864B250F82400406D50F004002F4915
:1026600064B251F82410486500202C4964B251F836
:1026700024104866294864B250F82400406D400890
:102680004000264964B251F82410486500202349CF
:1026900064B251F82410C8640020204964B251F893
:1026A00024100865F1BD38B504000D0064B2002C9B
:1026B00010D064B2012C02D064B2022C02D16DB2EF
:1026C000022D07DB64B2032C04D040F29B21114899
:1026D00000F093F8114864B250F824006DB210EB8A
:1026E000C500006980B232BD10B5040064B2042C8C
:1026F00004DB40F2A221074800F07FF800200749E0
:1027000064B251F82410486010BD00003C800440C1
:1027100030800440843800000C0EFF1F180BFF1F90
:1027200010B4294A12684FF40073C0B24409A340A0
:102730001A43254B1A60254AC0B2431152F8232090
:10274000012310F01F04A340C2F8A0301F4AC0B2FA
:10275000431152F82320C0B210F01F0342F8231097
:1027600010BC704710B4184A12684FF40073C0B21E
:102770004409A3401A43144B1A60144AC0B24311CF
:1027800052F82320012310F01F04A340C2F8A03008
:1027900031F4E0610D4AC0B2431152F82320C0B2B7
:1027A00010F01F0352F8232012F4E0621143074A8D
:1027B000C0B2431152F82320C0B210F01F0342F8F8
:1027C000231010BC7047000038800440980BFF1F96
:1027D000DFF800F0410CFF1FDFF800F0650CFF1F71
:1027E000BFF34F8F4648006810F4E0604549084346
:1027F00043490860BFF34F8FFEE738B504000D0072
:10280000002000F08DF82A0021003F4800F0DEF89B
:10281000002000F0C0F84FF47A7000F004F9F2E7FD
:1028200038B504000D00210049B2032000F01CFA65
:10283000200032BD10B50024042000F03FFA04202F
:1028400000F072FA002841D1002000F069F804205D
:1028500000F06AFA012801D101200400002000F0F4
:102860009AF82A4800F0B2F84FF4FA7000F0DBF85A
:10287000E4B2012CEBD1042000F056FA0028E6D196
:10288000042000F051FA002806D1002000F083F85F
:10289000642000F0C8F8F3E7042000F045FA0128AE
:1028A00006D1002000F077F8322000F0BCF8F3E702
:1028B000174800F08BF8FFF78BFF642000F0B3F8A7
:1028C0000020FFF789FFFFF78BFFC0E710BD10B5B1
:1028D00010480468012000F023F8012000F05BF8A4
:1028E0000D48E4B20F2101FB0402E4B221000B48C1
:1028F00000F06CF84FF47A7000F095F8EDE7000006
:102900000CED00E00400FA0588390000743A00007C
:10291000E039000004ED00E01004FF1FD037000094
:1029200010B5040064B2042C07DA01220121264804
:1029300064B2205C00F010FA0EE0042004002000D5
:10294000441E40B2002807D0012201211E4864B273
:10295000205C00F001FAF2E710BD38B504000D006C
:1029600064B2042C07DA2900C9B2174864B2205CAB
:1029700000F049FA0EE0042004002000441E40B29A
:10298000002807D02900C9B20F4864B2205C00F0CB
:102990003AFAF2E731BD10B5040064B2042C05DA4E
:1029A000094864B2205C00F068FA0CE004200400DE
:1029B0002000441E40B2002805D0034864B2205CC9
:1029C00000F05BFAF4E710BDCC0BFF1F0EB400B5AE
:1029D00082B003A90091024600AB0121034878446C
:1029E0000A30FDF719FD06BC5DF810FB5110000020
:1029F00010B50400002C15D0B4F1807F03D3292139
:102A00000F48FFF7FAFE00200E4908600E480460E8
:102A100000200E49086005200A490860094800683E
:102A2000C003FBD510BD10B504002000441E0028D3
:102A300004D007480068FFF7DBFFF6E710BD000091
:102A40004838000010E000E014E000E018E000E08A
:102A5000040EFF1F2DE9F84304000D0064B2002CA2
:102A600008D0022C2CD018D3042C4FD03BD3052CEB
:102A70005FD071E0DFF82C02006850F48060DFF86E
:102A8000241208604FF440716620FFF749FE4FF4AE
:102A900040716720FFF744FE5EE0DFF8080200683F
:102AA00050F40060DFF8FC1108604FF440714320DF
:102AB000FFF736FE4FF440714420FFF731FE4BE044
:102AC000DFF8E001006850F48050DFF8D8110860AA
:102AD0004FF440716320FFF723FE4FF440716220F2
:102AE000FFF71EFE38E0DFF8BC01006850F400502C
:102AF000DFF8B01108604FF440715020FFF710FE6E
:102B00004FF440715120FFF70BFE25E0DFF89801EC
:102B1000006850F48060DFF8901108604FF4407155
:102B20004E20FFF7FDFD4FF440714F20FFF7F8FDF9
:102B300012E0DFF87401006850F40060DFF86811FB
:102B400008604FF440718920FFF7EAFD4FF44071AF
:102B50008820FFF7E5FDFFE7DFF8500164B250F889
:102B60002400C07810F0F300DFF8401164B251F88F
:102B70002410C870DFF8340164B250F82400807863
:102B8000DFF8281164B251F82410887064B2002C68
:102B900002D064B2012C07D1DFF8140100684FF4B1
:102BA0007A714843814606E0DFF8080100684FF477
:102BB0007A71484381462801B9FBF0F00600B6B2AD
:102BC000B6F5005F02DB41F6FF700600B9FBF5F0D9
:102BD000B6B2B0EB06100700BFB2202F03DBDC213A
:102BE0003548FFF70AFE314864B250F824000078F7
:102BF00010F0E0008046C6F3042050EA08002B499C
:102C000064B251F824100870284864B250F82400C7
:102C10004670264864B250F82400807A10F0E00034
:102C2000804617F01F0050EA0800204964B251F8AE
:102C3000241088721D4864B250F82400007C50F0C3
:102C400088001A4964B251F824100874174864B215
:102C500050F82400C07850F00C00144964B251F8C8
:102C60002410C870BDE8F183104A40B252F8202009
:102C700012791206F8D50D4A40B252F82020D171CF
:102C8000704738B504000D002878002808D095F961
:102C9000001049B2200040B2FFF7E6FF6D1CF3E7D9
:102CA00031BD00003480044028800440AC0BFF1F7D
:102CB000040EFF1F0C0EFF1FF438000010B50400B7
:102CC00064B2082C0DDA00220021224864B2205C94
:102CD00000F042F803211F4864B2205CFFF742FD78
:102CE00014E0082004002000441E40B200280DD04B
:102CF00000220021174864B2205C00F02DF8032167
:102D0000144864B2205CFFF72DFDECE710BD10B550
:102D10000400104864B2205C00F0CCF8002801D117
:102D2000002000E0012010BD10B50400200040B2DA
:102D3000FFF7EDFF00280AD10A20FFF774FE2000FC
:102D400040B2FFF7E4FF002801D1002000E001209D
:102D500010BD0000C40BFF1F70B504000D0016006D
:102D60004FF480712000C0B2FFF7DAFC6DB2002D85
:102D700011D16048E4B2611150F821005D49E4B21C
:102D8000621151F822104969012214F01F039A4080
:102D90009143416136E05748E4B2611150F8210097
:102DA0005449E4B2621151F822104969012214F029
:102DB0001F039A4011434161F6B2002E11D14D48D4
:102DC000E4B2611150F821000068012114F01F02E3
:102DD000914088434749E4B2621151F822100860DB
:102DE00010E04448E4B2611150F82100006801216C
:102DF00014F01F02914008433E49E4B2621151F8B9
:102E00002210086070BD38B504000D003948E4B2E6
:102E1000611150F82100406914F01F010200CA40FE
:102E2000D00703D463213448FFF7E7FCEDB2002D4F
:102E300011D13048E4B2611150F82100006801213D
:102E400014F01F02914088432A49E4B2621151F8FC
:102E50002210086010E02748E4B2611150F8210008
:102E60000068012114F01F02914008432149E4B297
:102E7000621151F82210086031BD10B504001D48E0
:102E8000E4B2611150F82100406914F01F01020002
:102E9000CA40D00703D47B211748FFF7AEFC154882
:102EA000E4B2611150F82100012114F01F02914099
:102EB000C16010BD10B504000E48E4B2611150F8B5
:102EC0002100406914F01F010200CA40D00703D559
:102ED0008C210948FFF791FC0648E4B2611150F8D3
:102EE0002100006914F01F010200CA4012F0010025
:102EF00010BD0000280BFF1FBC380000DFF800F0F9
:102F0000B10DFF1FDFF8981340B231F8201040B226
:102F10000128C0F26A8140B2162880F26681002240
:102F2000DFF880331A7089B23D2904DA0022DFF815
:102F300074335A7077E089B2792904DA0122DFF814
:102F400064335A706FE089B2B52904DA0222DFF8DF
:102F500054335A7067E089B2F12904DA0322DFF8AA
:102F600044335A705FE089B2B1F5967F04DC0422E5
:102F7000DFF830335A7056E089B2B1F5B47F04DC23
:102F80000522DFF820335A704DE089B2B1F5D27FC7
:102F900004DC0622DFF80C335A7044E089B2B1F544
:102FA000F07F04DC0722DFF8FC325A703BE089B284
:102FB000B1F5077F04DC0822DFF8E8325A7032E00E
:102FC00089B2B1F5167F03DC0922B64B5A702AE0AC
:102FD00089B2B1F5257F03DC0A22B24B5A7022E098
:102FE00089B2B1F5347F03DC0B22AE4B5A701AE084
:102FF00089B2B1F5437F03DC0C22AA4B5A7012E070
:1030000089B2B1F5527F03DC0D22A64B5A700AE05B
:1030100089B2B1F5617F03DC0E22A24B5A7002E047
:103020000F22A04B5A7089B21A2903DA00229D4B55
:103030009A7069E089B2332903DA0122994B9A70B8
:1030400062E089B24C2903DA0222964B9A705BE067
:1030500089B2652903DA0322924B9A7054E089B24F
:103060007E2903DA04228F4B9A704DE089B29729AA
:1030700003DA05228B4B9A7046E089B2B02903DA55
:103080000622884B9A703FE089B2C92903DA0722E9
:10309000844B9A7038E089B2E22903DA0822814B26
:1030A0009A7031E089B2FB2903DA09227D4B9A70CC
:1030B0002AE089B2B1F58A7F03DA0A22794B9A7045
:1030C00022E089B2B1F5967F03DC0B22754B9A7032
:1030D0001AE089B2B1F5A37F03DA0C22714B9A7022
:1030E00012E089B2B1F5AF7F03DC0D226D4B9A700F
:1030F0000AE089B2B1F5BC7F03DA0E22694B9A70FF
:1031000002E00F22674B9A7089B21A2903DA002273
:10311000644BDA7069E089B2332903DA0122614B2A
:10312000DA7062E089B24C2903DA02225D4BDA7070
:103130005BE089B2652903DA03225A4BDA7054E066
:1031400089B27E2903DA0422564BDA704DE089B247
:10315000972903DA0522534BDA7046E089B2B02989
:1031600003DA06224F4BDA703FE089B2C92903DA4D
:1031700007224C4BDA7038E089B2E22903DA0822E0
:10318000484BDA7031E089B2FB2903DA0922454B5A
:10319000DA702AE089B2B1F58A7F03DA0A22414B5C
:1031A000DA7022E089B2B1F5967F03DC0B223D4B49
:1031B000DA701AE089B2B1F5A37F03DA0C22394B39
:1031C000DA7012E089B2B1F5AF7F03DC0D22354B26
:1031D000DA700AE089B2B1F5BC7F03DA0E22314B16
:1031E000DA7002E00F222F4BDA70704710B504003E
:1031F000200040B2FFF786FE2B48007810F0FD005B
:10320000294908702848007850F0100026490870B5
:10321000B8202649087026480078C006FBD4244808
:103220000078C0F38100C0B20228F8D11D48C378ED
:103230001C4882781B4841781A480078FFF75EFEE8
:10324000174864B210EB8400807810F00700194929
:103250000870134864B210EB8400C07810F01F00AF
:1032600050F0400014490870114800788006FBD5E2
:103270000F4800784006FBD50C48007810F03F005E
:103280000A4908700A480078C0F38100C0B20328D8
:10329000F8D1034864B230F82400C0B210BD000079
:1032A0003C0BFF1F940BFF1F0140064000400640EF
:1032B000064006400440064005400640DFF800F0A6
:1032C000272A0000DFF800F0FB270000F020544917
:1032D0000870534800780006FBD5514800787121EA
:1032E000084201D0002000E00120704780B54D4821
:1032F000006850F400204B490860494800780006F7
:10330000FBD5F020464908700A20FFF7D7FF01BD22
:1033100010B582B00400A4B24FF4805000FB04F05A
:1033200000900920404908709DF802003F4908704C
:103330009DF801003E4908709DF800003D49087065
:10334000FFF7C4FF002801D100200EE0A4B2002C3A
:103350000AD15FF0FF327FF001034FF4816120005A
:1033600080B200F003F800E0012016BDF0B583B094
:1033700006000F0014001D00B6B24FF48050BFB21B
:1033800000FB06700190BFB2082097FBF0F101FB33
:103390001071002903D0EA212748FFF793FFBFB23D
:1033A000B7F5805F03DDEC212348FFF78BFF9DF825
:1033B00006001E4908709DF805001D4908709DF81B
:1033C00004001C49087000949DF803001B49087014
:1033D0009DF802001A4908709DF80100194908700B
:1033E0009DF800001849087007200F4908700095E3
:1033F0009DF80300154908709DF8020014490870F3
:103400009DF80100134908709DF8000012490870EA
:10341000FFF75CFF002801D1002000E00120FEBD85
:103420000000024004F00140070002400600024094
:1034300005000240040002400C3800000B0002406E
:103440000A00024009000240080002400F0002404A
:103450000E0002400D0002400C000240F0B4114E7C
:10346000366834000F4E366856F47F060D4F3E60C6
:103470000E0616F0706656EA0076170517F4700708
:103480003E431F0417F470273E43074F3E6000265B
:103490003500EDB29D4201D26D1CFAE7014E346059
:1034A000F0BC704700F0014044800440012110F05E
:1034B0001F0291404D4A40B2430942F82310704721
:1034C00010B50123012206210020FFF723F80FF297
:1034D000B9014E2000F0ADF83E20FFF7E7FF3223A0
:1034E0004FF47A7201210120FEF746FF0020FFF71A
:1034F00017FA00210020FFF730FA4FF4165104208C
:10350000FFF7A8FA3A480068002834D03948006824
:103510004FF47A714843022190FBF1F03449096875
:10352000B0FBF1F0040034490420FFF7AAFB64B2B9
:10353000211249B20420FFF797FB210049B2042071
:10354000FFF792FB2D490420FFF79BFB0020FFF7BC
:1035500022FA3220FFF767FA002025490860002090
:103560002749086027480068C06850F04000254996
:103570000968C86003E024490420FFF782FB322079
:10358000FFF751FABEE7000038B51D480468002077
:103590001B490860062005000120A8402100C9B28F
:1035A000014221D019480078002808D11748007836
:1035B000401C164908700020FFF796F814E01348E5
:1035C0000078012810D106210020FFF76CF8084987
:1035D000086000200D4908700A480068C06830F093
:1035E000400008490968C86031BD000000E100E002
:1035F000000EFF1F0C0EFF1F883A0000A03A0000CB
:1036000050800340180BFF1F603A0000600EFF1F40
:1036100010B504004FF4007094FBF0F101FB104171
:10362000002903D01E210B48FFF7E7F80A48046081
:1036300010BD38B504000D000748006807498842EE
:1036400003D030210348FFF7D8F8044864B240F8AB
:10365000245031BD2C39000008ED00E00000FF1FB0
:1036600080B500F095F800F02AF800F00AF8FFF7AE
:10367000E1F8012201210420FFF76EFBFFF720FF94
:10368000FEE780B50420FFF7B1FD334908603248FA
:1036900000684FF47A714843304908602F48006849
:1036A0002F490968C1F30361491CB0FBF1F02D49B2
:1036B00008605FF4E1310320FFF7CCF901BD2DE98B
:1036C000F8432948294988420DD000208046B8F5A2
:1036D000826F08D2254850F82800234941F8280075
:1036E00018F10108F3E72048FFF792FF2048070090
:1036F0002048060020480400A01B80464046B0F148
:103700000108002804D030783870761C7F1CF5E75B
:103710001A4881461A480500B5EB09008046404624
:10372000B0F10108002805D0002089F8000019F147
:103730000109F4E713481449144A531A98464346BA
:10374000B3F10108002B04D00B780370491C401C16
:10375000F5E7BDE8F1830000080EFF1F040EFF1F10
:10376000448004400C0EFF1F0000FF1F00000000FB
:103770001004FF1FCC190000CC210000000EFF1F19
:10378000640EFF1F100CFF1FBC320000AC340000A1
:1037900080B500F008F80C4800884FF6FE7108402C
:1037A0000949088001BDEFF3118072B64CF2205137
:1037B000064A11804DF62811044A1180C0B2002833
:1037C00000D162B670470000002005400E20054081
:1037D0000A2A2A2A2A64656661756C745F697372A5
:1037E00020656E7465726564206F6E207665637403
:1037F0006F722025642A2A2A2A2A0A0A2573204958
:103800006E7465727275707400000000463A5CD187
:10381000D0BEBFC9FA5CBFA7C3CB5C414D505C7042
:10382000726A5C5A4748436F646576312E315C4357
:103830006869705C7372635C4D4B36305F666C61B7
:1038400073682E6300000000463A5CD1D0BEBFC949
:10385000FA5CBFA7C3CB5C414D505C70726A5C5A86
:103860004748436F646576312E315C436869705C0C
:103870007372635C4D4B36305F5379735469636B7D
:103880002E630000463A5CD1D0BEBFC9FA5CBFA728
:10389000C3CB5C414D505C70726A5C5A4748436FC1
:1038A000646576312E315C436869705C7372635C69
:1038B0004D4B36305F66746D2E630000463A5CD126
:1038C000D0BEBFC9FA5CBFA7C3CB5C414D505C7092
:1038D000726A5C5A4748436F646576312E315C43A7
:1038E0006869705C7372635C4D4B36305F677069FA
:1038F0006F2E6300463A5CD1D0BEBFC9FA5CBFA749
:10390000C3CB5C414D505C70726A5C5A4748436F50
:10391000646576312E315C436869705C7372635CF8
:103920004D4B36305F756172742E6300463A5CD140
:10393000D0BEBFC9FA5CBFA7C3CB5C414D505C7021
:10394000726A5C5A4748436F646576312E315C4336
:103950006869705C7372635C6D6973632E630000E9
:1039600010B5074979441831064C7C44163404E0FC
:103970000A68081D511888470146A142F8D110BDB8
:10398000500000005C000000417373657274696F41
:103990006E206661696C656420696E202573206104
:1039A00074206C696E652025640A00004EF688510B
:1039B000CEF20001086840F470000860BFF34F8F3A
:1039C000BFF36F8F4FF00070E1EE100A70470000F8
:1039D0003FD6FFFF64000000000EFF1F0000000044
:1039E0000ABDF8D0D0BDE2CBF8B2D9D7F7A3ACC7A7
:1039F000EBD6D8D0C2CBA2C8EBB9CCBCFE0000003D
:103A000000F00BF8002801D0FFF7AAFF0020C04605
:103A1000C046FFF755FD00F002F80120704700F0A6
:103A200001B800000746384600F002F8FBE7000046
:103A30002021090326311820ABBEF9E738B504462A
:103A40000D46284600F006F8A84218BF002420467C
:103A500032BD00000149FEF7E3BE00BFD00BFF1FDF
:103A60004E6F206672657120646574656374656469
:103A700021200A000ABDF8C8EBCBC0D1ADBBB7B559
:103A8000C8B4FDA3A10000004672657120697320CF
:103A90003A000000C046C046FFF788FFFFF7B0FFBE
:103AA000487A200A0000000000000000000000002A
:103AB0000000000000000000000000000000000006
:103AC00000000000FFFFFFFFFFFFFFFF00000000FE
:103AD00000000000000000000000000000000000E6
:103AE00000000000000000000000000000000000D6
:103AF000FFFFFFFFFFFF00000000000000000000CC
:103B000000000000000000000000000000000000B5
:103B100000000000000000000000000000000000A5
:103B20000000000000000000000000000000000095
:0400000500003A9528
:00000001FF
